:100000000C9434000C9451000C9451000C94510049
:100010000C9451000C9451000C9451000C9451001C
:100020000C9451000C9451000C9451000C94AA02B1
:100030000C9451000C9451000C9451000C945100FC
:100040000C9451000C9451000C9451000C945100EC
:100050000C9451000C9451000C9451000C945100DC
:100060000C9451000C94510011241FBECFEFD8E026
:10007000DEBFCDBF11E0A0E0B1E0EAE7F2E102C0EF
:1000800005900D92A034B107D9F727E0A0E4B1E0C4
:1000900001C01D92AC35B207E1F70E9491000C94AB
:1000A0003B090C940000259A08950F931F93CF935A
:1000B000DF93C0E0D0E00CE111E0DF93CF931F931A
:1000C0000F930E94780621960F900F900F900F903B
:1000D000C83E83E0D80789F795B180E2892785B9C2
:1000E000DF91CF911F910F910895CF93DF9300D0AF
:1000F000CDB7DEB780E291E09F938F930E947806A0
:100100000E9453000E944D049A8389830F900F90A0
:100110000E94550068EE73E0CE0101960E94B5057D
:10012000F7CFAF92BF92CF92DF92EF92FF920F93F1
:1001300087E690E00E9455068EE091E09093590783
:100140008093580780E091E090935707809356077B
:10015000A12CB12CC12CD12CE12CF12C00E020E001
:1001600030E045E550E066E371E085E790E00E940D
:1001700023030E94150480E090E00F91FF90EF9020
:10018000DF90CF90BF90AF900895FC0103969283CB
:1001900081832FEF3FEF348323839683858390877A
:1001A000878310820895FC01118610860895CF93ED
:1001B000DF939C01FB01DC011196CD91DC9112973C
:1001C000D383C2838C819D81958384838C819D811F
:1001D000DC0113967C936E9312977D836C83318739
:1001E0002087F90180818F5F8083DF91CF9108950F
:1001F000CF93DF93EB01488159814F3F2FEF520797
:1002000021F4FC01A781B0850DC0DC011396129684
:10021000ED91FC911397208131814217530710F023
:10022000DF01F5CF1296ED91FC911397FB83EA83E2
:10023000D583C483BD83AC831396DC93CE9312978E
:1002400099878887FC0120812F5F2083DF91CF91E0
:100250000895CF93DF93FC01A085B185C281D3813E
:10026000848195819D838C83C481D5818281938192
:100270009B838A831196CD91DC911297CE17DF076D
:1002800031F48C819D8112969C938E9311971186E7
:1002900010868C9181508C93DF91CF91089531E13C
:1002A000FC013083319722E220833197A3E3A083BE
:1002B000319760833197708331971082319760E86E
:1002C000608331971082319762E06083319763E0F9
:1002D0006083319764E06083319765E06083319794
:1002E00066E06083319767E06083319768E0608300
:1002F000319769E06083319760E1608331973083A3
:10030000319732E13083319733E13083319734E1F3
:100310003083319735E13083319736E1308331973F
:1003200037E13083319738E13083319739E13083D9
:10033000319730E23083319731E230833197208337
:10034000319723E22083319740833197508331974F
:1003500026E22083319727E22083319728E2208309
:10036000319729E22083319720E32083319721E3DD
:10037000208386970895109289008CE780938800E7
:100380008BE080938100EFE6F0E0808182608083E3
:10039000A0915407B0915507CD91CDBFDD91DEBF3F
:1003A000FF91EF91DF91CF91BF91AF919F918F918D
:1003B0007F916F915F914F913F912F911F910F917D
:1003C000FF90EF90DF90CF90BF90AF909F908F9075
:1003D0007F906F905F904F903F902F901F900F9065
:1003E0000FBE0F90089581E008950F920FB6F89414
:1003F0000F921F9211242F923F924F925F926F9211
:100400007F928F929F92AF92BF92CF92DF92EF92A4
:10041000FF920F931F932F933F934F935F936F938D
:100420007F938F939F93AF93BF93CF93DF93EF937C
:10043000FF93A0915407B09155070DB60D920EB6DB
:100440000D920E94F705A0915407B0915507CD91E8
:10045000CDBFDD91DEBFFF91EF91DF91CF91BF91D5
:10046000AF919F918F917F916F915F914F913F914C
:100470002F911F910F91FF90EF90DF90CF90BF9041
:10048000AF909F908F907F906F905F904F903F9034
:100490002F901F900F900FBE0F9008950F920FB6E0
:1004A000F8940F921F9211242F923F924F925F92D5
:1004B0006F927F928F929F92AF92BF92CF92DF9274
:1004C000EF92FF920F931F932F933F934F935F935E
:1004D0006F937F938F939F93AF93BF93CF93DF934C
:1004E000EF93FF93A0915407B09155070DB60D926D
:1004F0000EB60D920E94570481110E94F705A0913B
:100500005407B0915507CD91CDBFDD91DEBFFF916E
:10051000EF91DF91CF91BF91AF919F918F917F919B
:100520006F915F914F913F912F911F910F91FF908C
:10053000EF90DF90CF90BF90AF909F908F907F9083
:100540006F905F904F903F902F901F900F900FBE35
:100550000F9008950E944E021895CF93DF93EC01FF
:100560000E9447048091400190914101892B31F410
:1005700085E491E0909341018093400140914201D4
:10058000509143019E01240F351F2B3D85E0380714
:1005900070F44217530770F4C0914001D0914101AB
:1005A000C40FD51F309343012093420105C0C0E022
:1005B000D0E002C0C0E0D0E00E943205CE01DF9161
:1005C000CF9108950895CBE4D7E08881823008F474
:1005D000FFCF0E94F501F9CFCF93DF93EC01E091BB
:1005E0005407F09155079383828380912907909156
:1005F0002A07C817D90768F4609154077091550706
:1006000080913507909136076E5F7F4F0E94F8000A
:1006100017C06091540770915507809137079091EA
:1006200038076E5F7F4F0E94F800809121079091FC
:100630002207C817D90720F4D0932207C0932107B7
:10064000DF91CF9108955F926F927F928F929F92E8
:10065000AF92BF92CF92DF92EF92FF920F931F93D0
:10066000CF93DF934C01EB013A015901502EC11495
:10067000D10439F4CA010E94AD026C01009709F45B
:10068000A5C086E290E00E94AD028C01009779F04F
:10069000FC01D08EC78AF1E06F1A7108C60CD71C16
:1006A0008881F801818F8881811105C010C0C60141
:1006B0000E94E2028BC0F8017A96219687E0DE0163
:1006C000999191939C91992311F08150C1F7F80170
:1006D00010A2168AE8012296CE010E94D300C8011A
:1006E0000C960E94D300F8011187008781E090E00A
:1006F00095878487138B028B11A212A213A214A2D6
:1007000015A2A501B401C6010E944F01F801918311
:100710008083E114F10419F0F701118300830FB60F
:10072000F8940F9280912B078F5F80932B07809115
:10073000540790915507892B49F41093550700935E
:10074000540780912B07813081F442C080912707A4
:1007500081110BC0E0915407F09155078689581616
:1007600020F01093550700935407809123078F5F63
:1007700080932307F801868990912807981710F431
:100780008093280790E09C01220F331F220F331F14
:10079000220F331F820F931FBE01855B984F0E946B
:1007A000D7000F900FBE80912707882359F0E09162
:1007B0005407F09155078689851530F40E94F5019C
:1007C00081E023C081E021C081E01FC08FEF1DC008
:1007D0008BE497E00E94C50082E497E00E94C50088
:1007E00089E397E00E94C5008CE297E00E94C50073
:1007F00082E497E0909338078093370789E397E086
:100800009093360780933507B0CFDF91CF911F913A
:100810000F91FF90EF90DF90CF90BF90AF909F909F
:100820008F907F906F905F900895AF92BF92CF921C
:10083000DF92EF92FF920F93A12CB12CC12CD12CFF
:10084000E12CF12C00E020E030E045E550E06AE3E7
:1008500071E083EE92E00E942303813081F4F894EA
:100860008FEF9FEF909322078093210781E0809381
:10087000270710922A07109229070E94BB010F91A7
:10088000FF90EF90DF90CF90BF90AF900895809150
:1008900020078F5F8093200708950FB6F8940F927A
:1008A0008091290790912A070F900FBE0895CF924B
:1008B000DF92EF92FF920F931F93CF93DF9380917C
:1008C00020078111B6C08091290790912A070196CF
:1008D00090932A0780932907E0902907F0902A0730
:1008E000E114F10499F58091370790913807209130
:1008F00035073091360730933807209337079093A8
:10090000360780933507809124078F5F80932407F3
:10091000E0913707F09138078081811107C08FEF90
:100920009FEF909322078093210710C0E091370733
:10093000F09138070580F681E02D0680F781E02DE3
:1009400082819381909322078093210780912107D0
:1009500090912207E816F90608F454C0D12CCC2453
:10096000C39401C0DC2CE0913707F09138078081F7
:10097000811107C08FEF9FEF90932207809321078B
:1009800042C0E0913707F09138070580F681E02DED
:10099000C681D7812A813B81E216F30628F4309381
:1009A0002207209321072FC08E010E5F1F4FC80121
:1009B0000E9429018C899D89892B21F0CE010C96FA
:1009C0000E9429012E8980912807821710F4209314
:1009D000280730E0C901880F991F880F991F880FD9
:1009E000991F820F931FB801855B984F0E94D70013
:1009F000E0915407F09155079E898689981708F071
:100A0000B1CFB1CFD12CE0915407F0915507868931
:100A100090E0FC01EE0FFF1FEE0FFF1FEE0FFF1F18
:100A20008E0F9F1FFC01E55BF84F8081823040F400
:100A300009C0809126078F5F80932607D12C02C0C2
:100A4000DD24D39480912507882311F0DD24D394ED
:100A50008D2DDF91CF911F910F91FF90EF90DF903F
:100A6000CF900895DF92EF92FF920F931F93CF9351
:100A7000DF930FB6F8940F928091200781508093F6
:100A8000200780912007811161C080912B07882366
:100A900009F45EC00F2EFCE2EF2EF7E0FF2EF02DE2
:100AA000DD24D39430C0E0913107F0913207C68144
:100AB000D781CE010C960E9429018E010E5F1F4F37
:100AC000C8010E9429018E8990912807981710F477
:100AD0008093280790E09C01220F331F220F331FC1
:100AE000220F331F820F931FB801855B984F0E941E
:100AF000D700E0915407F09155079E898689981791
:100B000010F0D0922507F70180818111CCCF809120
:100B10002607882399F080912607882379F0C1E081
:100B20000E9457048111C0932507809126078150A8
:100B300080932607809126078111F2CF80912507A7
:100B4000813041F40E94F50181E005C080E003C0DE
:100B500080E001C080E00F900FBEDF91CF911F9128
:100B60000F91FF90EF90DF9008950F931F93CF9315
:100B7000DF938C01EB010E9447048091290790913B
:100B80002A07F80120813181C20FD31F82179307F2
:100B900048F4C217D30710F5D183C0838C179D0783
:100BA00090F407C0C217D307A8F08C179D0790F0E8
:100BB00015C0809154079091550702960E94290113
:100BC000CE010E94EC020E94320581110BC00E94EE
:100BD000F50108C0F801D183C083EBCFF801D183C0
:100BE000C083F1CFDF91CF911F910F910895809134
:100BF0002007882321F081E0809325070895109233
:100C000025078091280790E0FC01EE0FFF1FEE0FF3
:100C1000FF1FEE0FFF1F8E0F9F1FFC01E55BF84FBC
:100C20008081811117C08091280781508093280707
:100C30008091280790E0FC01EE0FFF1FEE0FFF1FD1
:100C4000EE0FFF1F8E0F9F1FFC01E55BF84F8081A9
:100C5000882349F3E0912807F0E0CF01880F991F1E
:100C6000880F991F880F991FE80FF91FE55BF84F50
:100C7000A181B28112960D90BC91A02DB283A18367
:100C8000CF010396A817B90731F412968D919C9164
:100C90001397928381830180F281E02D8681978171
:100CA000909355078093540708959093C5008093BF
:100CB000C4008EE08093C20088E18093C100089553
:100CC000CF93C82F8A3019F48DE00E946006E0ECC3
:100CD000F0E0908195FFFDCFC093C600CF910895BD
:100CE000E0ECF0E080818823ECF78091C600089565
:100CF000A0E0B0E0EEE7F6E00C941409FE013596B2
:100D000061917191AF0180915807909159070E94AC
:100D10008C06E2E00C943009ACE0B0E0E2E9F6E0E9
:100D20000C9404097C016B018A01FC011782168274
:100D3000838181FFBDC1CE0101964C01F7019381F2
:100D4000F60193FD859193FF81916F01882309F44A
:100D5000ABC1853239F493FD859193FF81916F0189
:100D6000853229F4B70190E00E947408E7CF512C36
:100D7000312C20E02032A0F48B3269F030F4803244
:100D800059F0833269F420612CC08D3239F0803300
:100D900039F4216026C02260246023C0286021C06D
:100DA00027FD27C030ED380F3A3078F426FF06C013
:100DB000FAE05F9E300D1124532E13C08AE0389E56
:100DC000300D1124332E20620CC08E3221F426FD0A
:100DD0006BC1206406C08C3611F4206802C08836CE
:100DE00041F4F60193FD859193FF81916F0181118B
:100DF000C1CF982F9F7D9554933028F40C5F1F4FDF
:100E0000FFE3F9830DC0833631F0833771F083350A
:100E100009F05BC022C0F801808189830E5F1F4FFB
:100E200044244394512C540115C03801F2E06F0E54
:100E3000711CF801A080B18026FF03C0652D70E011
:100E400002C06FEF7FEFC5012C870E9469082C015B
:100E500083012C852F77222E17C03801F2E06F0E08
:100E6000711CF801A080B18026FF03C0652D70E0E1
:100E700002C06FEF7FEFC5012C870E945E082C0136
:100E80002C852068222E830123FC1BC0832D90E03B
:100E900048165906B0F4B70180E290E00E94740849
:100EA0003A94F4CFF50127FC859127FE81915F01EB
:100EB000B70190E00E94740831103A94F1E04F1AA3
:100EC00051084114510471F7E5C0843611F0893698
:100ED00039F5F80127FF07C0608171818281938114
:100EE0000C5F1F4F08C060817181882777FD809556
:100EF000982F0E5F1F4F2F76B22E97FF09C0909547
:100F00008095709561957F4F8F4F9F4F2068B22ECF
:100F10002AE030E0A4010E94A608A82EA81844C028
:100F2000853729F42F7EB22E2AE030E025C0F22F3B
:100F3000F97FBF2E8F36C1F018F4883579F0B4C030
:100F4000803719F0883721F0AFC02F2F2061B22EE3
:100F5000B4FE0DC08B2D8460B82E09C024FF0AC0DA
:100F60009F2F9660B92E06C028E030E005C020E132
:100F700030E002C020E132E0F801B7FE07C0608136
:100F80007181828193810C5F1F4F06C060817181E6
:100F900080E090E00E5F1F4FA4010E94A608A82EDB
:100FA000A818FB2DFF77BF2EB6FE0BC02B2D2E7F72
:100FB000A51450F4B4FE0AC0B2FC08C02B2D2E7E3E
:100FC00005C07A2C2B2D03C07A2C01C0752C24FF70
:100FD0000DC0FE01EA0DF11D8081803311F4297EE0
:100FE00009C022FF06C07394739404C0822F8678D0
:100FF00009F0739423FD13C020FF06C05A2C73140C
:1010000018F4530C5718732C731468F4B70180E26A
:1010100090E02C870E94740873942C85F5CF73148C
:1010200010F4371801C0312C24FF12C0B70180E33F
:1010300090E02C870E9474082C8522FF17C021FFA6
:1010400003C088E590E002C088E790E0B7010CC0DB
:10105000822F867859F021FD02C080E201C08BE228
:1010600027FD8DE2B70190E00E947408A51438F4C2
:10107000B70180E390E00E9474085A94F7CFAA94D5
:10108000F401EA0DF11D8081B70190E00E9474081F
:10109000A110F5CF332009F451CEB70180E290E0E2
:1010A0000E9474083A94F6CFF7018681978102C0B6
:1010B0008FEF9FEF2C96E2E10C942009FC01059044
:1010C000615070400110D8F7809590958E0F9F1F4A
:1010D0000895FC016150704001900110D8F780958F
:1010E00090958E0F9F1F08950F931F93CF93DF93BB
:1010F000182F092FEB018B8181FD03C08FEF9FEF2C
:1011000020C082FF10C04E815F812C813D8142173B
:1011100053077CF4E881F9819F012F5F3F4F3983AA
:101120002883108306C0E885F985812F0995892BCE
:1011300029F72E813F812F5F3F4F3F832E83812FE1
:10114000902FDF91CF911F910F910895FA01AA2757
:10115000283051F1203181F1E8946F936E7F6E5FFA
:101160007F4F8F4F9F4FAF4FB1E03ED0B4E03CD0A8
:10117000670F781F891F9A1FA11D680F791F8A1F8B
:10118000911DA11D6A0F711D811D911DA11D20D0F2
:1011900009F468943F912AE0269F11243019305DAC
:1011A0003193DEF6CF010895462F4770405D41939D
:1011B000B3E00FD0C9F7F6CF462F4F70405D4A33EA
:1011C00018F0495D31FD4052419302D0A9F7EACFB2
:1011D000B4E0A6959795879577956795BA95C9F7E1
:1011E00000976105710508959B01AC010A2E0694D4
:1011F0005795479537952795BA95C9F7620F731F8D
:10120000841F951FA01D08952F923F924F925F92C9
:101210006F927F928F929F92AF92BF92CF92DF9206
:10122000EF92FF920F931F93CF93DF93CDB7DEB76B
:10123000CA1BDB0B0FB6F894DEBF0FBECDBF0994FF
:101240002A88398848885F846E847D848C849B8456
:10125000AA84B984C884DF80EE80FD800C811B8164
:10126000AA81B981CE0FD11D0FB6F894DEBF0FBE93
:0A127000CDBFED010895F894FFCF03
:10127A0000000001000000000000700600000000ED
:10128A0000020000000060060000000025640A0059
:10129A00496E697469616C697A696E67204C454464
:1012AA00207461736B004C45440049444C4500006E
:00000001FF
