S01A0000486F6D65536563757269747953797374656D2E73726563A4
S11300000C9434000C9451000C9451000C94510045
S11300100C9451000C9451000C9451000C94510018
S11300200C9451000C9451000C9451000C94030353
S11300300C9451000C9451000C9451000C945100F8
S11300400C9451000C9451000C9451000C945100E8
S11300500C9451000C9451000C9451000C945100D8
S11300600C9451000C94510011241FBECFEFD8E022
S1130070DEBFCDBF11E0A0E0B1E0E2E7F5E102C0F0
S113008005900D92A03AB107D9F725E0A0EAB1E0B6
S113009001C01D92AE3FB207E1F70E9484000C94A8
S11300A0B70A0C940000CF93DF9300D000D0CDB7F3
S11300B0DEB720E04FEF5FEFBE016F5F7F4F8091AF
S11300C0F0059091F1050E94FA04882391F38CE1E4
S11300D091E00E948A0AEDCFCF93DF9300D0CDB791
S11300E0DEB720E04FEF5FEFBE016F5F7F4F80917F
S11300F0F2059091F3050E94FA04882391F38AE3B0
S113010091E00E948A0AEDCFAF92BF92CF92DF9224
S1130110EF92FF920F9387E690E00E94450A8EE0EB
S113012091E09093FB058093FA0580E091E0909331
S1130130F9058093F80540E064E082E00E942A0417
S11301409093F1058093F00540E066E082E00E9420
S11301502A049093F5058093F40540E062E082E080
S11301600E942A049093F3058093F20540E064E032
S113017082E00E942A049093F7058093F605A12C4F
S1130180B12CC12CD12CE12CF12C01E020E030E089
S113019045E550E060E571E084E091E00E94FC05F3
S11301A020E030E045E550E064E571E083E590E06F
S11301B00E94FC0520E030E045E550E06FE571E089
S11301C08CE690E00E94FC0520E030E045E550E03C
S11301D063E671E088E69AE00E94FC0520E030E0E6
S11301E045E550E068E671E08AEF99E00E94FC057D
S11301F00E940A0780E090E00F91FF90EF90DF905B
S1130200CF90BF90AF900895CF93DF9300D000D0EC
S113021000D0CDB7DEB720E04FEF5FEFBE016F5FD8
S11302207F4F8091F4059091F5050E94FA0488238C
S113023091F38DE691E00E948A0AEDCFFC010396CA
S1130240928381832FEF3FEF3483238396838583C7
S11302509087878310820895FC0111861086089583
S1130260CF93DF939C01FB01DC011196CD91DC91CE
S11302701297D383C2838C819D81958384838C81DF
S11302809D81DC0113967C936E9312977D836C831E
S113029031872087F90180818F5F8083DF91CF913F
S11302A00895CF93DF93EB01488159814F3F2FEF9E
S11302B0520721F4FC01A781B0850DC0DC0113961F
S11302C01296ED91FC9113972081318142175307C7
S11302D010F0DF01F5CF1296ED91FC911397FB839B
S11302E0EA83D583C483BD83AC831396DC93CE9316
S11302F0129799878887FC0120812F5F2083DF91E3
S1130300CF910895CF93DF93FC01A085B185C2817D
S1130310D381848195819D838C83C481D58182819D
S113032093819B838A831196CD91DC911297CE178A
S1130330DF0731F48C819D8112969C938E931197E3
S1130340118610868C9181508C93DF91CF91089502
S113035031E1FC013083319722E220833197A3E31A
S1130360A0833197608331977083319710823197DE
S113037060E8608331971082319762E0608331973F
S113038063E06083319764E06083319765E0608364
S1130390319766E06083319767E06083319768E066
S11303A06083319769E06083319760E160833197BE
S11303B03083319732E13083319733E130833197A1
S11303C034E13083319735E13083319736E130833E
S11303D0319737E13083319738E13083319739E110
S11303E03083319730E23083319731E23083319773
S11303F02083319723E220833197408331975083C0
S1130400319726E22083319727E22083319728E22F
S11304102083319729E22083319720E32083319789
S113042021E3208386970895109289008CE78093B6
S113043088008BE080938100EFE6F0E080818260A9
S11304408083A091EE05B091EF05CD91CDBFDD91F4
S1130450DEBFFF91EF91DF91CF91BF91AF919F915B
S11304608F917F916F915F914F913F912F911F9148
S11304700F91FF90EF90DF90CF90BF90AF909F903F
S11304808F907F906F905F904F903F902F901F9030
S11304900F900FBE0F90089581E008950F920FB64C
S11304A0F8940F921F9211242F923F924F925F92D1
S11304B06F927F928F929F92AF92BF92CF92DF9270
S11304C0EF92FF920F931F932F933F934F935F935A
S11304D06F937F938F939F93AF93BF93CF93DF9348
S11304E0EF93FF93A091EE05B091EF050DB60D9239
S11304F00EB60D920E94E008A091EE05B091EF05B2
S1130500CD91CDBFDD91DEBFFF91EF91DF91CF9112
S1130510BF91AF919F918F917F916F915F914F9117
S11305203F912F911F910F91FF90EF90DF90CF900B
S1130530BF90AF909F908F907F906F905F904F90FF
S11305403F902F901F900F900FBE0F9008950F9221
S11305500FB6F8940F921F9211242F923F924F924C
S11305605F926F927F928F929F92AF92BF92CF923F
S1130570DF92EF92FF920F931F932F933F934F932A
S11305805F936F937F938F939F93AF93BF93CF9317
S1130590DF93EF93FF93A091EE05B091EF050DB6B5
S11305A00D920EB60D920E94420781110E94E0083E
S11305B0A091EE05B091EF05CD91CDBFDD91DEBFE9
S11305C0FF91EF91DF91CF91BF91AF919F918F9167
S11305D07F916F915F914F913F912F911F910F9157
S11305E0FF90EF90DF90CF90BF90AF909F908F904F
S11305F07F906F905F904F903F902F901F900F903F
S11306000FBE0F9008950E94A7021895CF93DF9311
S1130610EC010E943C078091A0019091A101892BDB
S113062031F485EA91E09093A1018093A001409177
S1130630A2015091A3019E01240F351F273E83E0A0
S1130640380770F44217530770F4C091A001D09199
S1130650A101C40FD51F3093A3012093A20105C0AB
S1130660C0E0D0E002C0C0E0D0E00E940108CE01AA
S1130670DF91CF91089508951F93CF93DF93EC01F9
S1130680142F8C8D8823E9F1411117C0482F50E0B5
S11306908C819D810E94810A2C8D8C819D81820F89
S11306A0911D9D838C832A813B818217930748F196
S11306B0888199819D838C8324C0482F50E08E814A
S11306C09F810E94810A2C8D30E03195219531095A
S11306D08E819F81820F931F9F838E83688179818E
S11306E08617970730F48A819B81280F391F3F832F
S11306F02E83123031F48A8D882319F08A8D81502B
S11307008A8F8A8D8F5F8A8F80E0DF91CF911F91CE
S11307100895FC01CB01448D4423A1F050E02681CF
S11307203781240F351F378326836281738126170F
S1130730370720F0208131813783268366817781D2
S11307400E94810A08950F931F93CF93DF93EC01C6
S11307500FB6F8940F928E8D1816B4F489898823F5
S113076099F08E010F5E1F4F03C08989882361F0C1
S1130770C8010E946A0981110E94F6098E8D815078
S11307808E8F8E8D18168CF38FEF8E8F0F900FBE79
S11307900FB6F8940F928D8D1816B4F488858823BB
S11307A099F08E01085F1F4F03C08885882361F08C
S11307B0C8010E946A0981110E94F6098D8D815039
S11307C08D8F8D8D18168CF38FEF8D8F0F900FBE3C
S11307D0DF91CF911F910F910895CF93DF93EC0197
S11307E00FB6F8940F92888199812C8D30E07B8D1F
S11307F0729FA001739F500D1124FC01E40FF51F9B
S1130800FB83EA831A8E9D838C83421B530B840FD4
S1130810951F9F838E838FEF8D8F8E8F61110CC0F8
S11308208885882389F0CE0108960E946A09813060
S113083059F40E944E0208C0CE0108960E941E017F
S1130840CE0141960E941E010F900FBE81E0DF9100
S1130850CF9108950F931F93CF93DF93082F162FF3
S11308606623C9F0869FC001112480960E94060366
S1130870EC01009721F416C0D983C88305C09C01FC
S1130880215E3F4F398328830B8F1C8F61E0CE019B
S11308900E94ED0307C08FE190E00E940603EC0183
S11308A0009751F7CE01DF91CF911F910F910895D9
S11308B09F92AF92BF92CF92DF92EF92FF920F93EB
S11308C01F93CF93DF9300D000D01F92CDB7DEB734
S11308D08C016B015D834C83A22EB12C99249394DB
S11308E07C0188E0E80EF11C0FB6F8940F92F80131
S11308F0928D838D981718F0F2E0AF1219C04A2D2B
S1130900B601C8010E943C03F8019189992349F07A
S1130910C80141960E946A09813031F40E944E0256
S113092003C081110E944E020F900FBE81E051C09E
S1130930EC81FD81EF2B21F40F900FBE80E049C0C4
S1130940B11005C0CE0101960E94B209B92C0F90D6
S11309500FBE0E943C070FB6F8940F92F801858DE4
S11309608F3F09F4158EF801868D8F3F09F4168E9A
S11309700F900FBEBE016C5F7F4FCE0101960E94A7
S1130980BD09811120C00FB6F8940F92F801928D21
S11309900F900FBEF801838D98130FC06C817D8179
S11309A0C7010E943E09C8010E94A3030E940108D6
S11309B081119ACF0E944E0297CFC8010E94A303CF
S11309C00E94010891CFC8010E94A3030E9401085C
S11309D080E00F900F900F900F900F90DF91CF91C8
S11309E01F910F91FF90EF90DF90CF90BF90AF9049
S11309F09F9008959F92AF92BF92CF92DF92EF9211
S1130A00FF920F931F93CF93DF9300D000D01F92D8
S1130A10CDB7DEB78C016B015D834C83B22EA12C64
S1130A20992493947C0181E1E80EF11C0FB6F894AB
S1130A300F92F801828D882349F1E680F780B60190
S1130A40C8010E948903B11010C0F801828D815041
S1130A50828F80858823B1F0C80108960E946A09B4
S1130A60813081F40E944E020DC0F801F782E682C3
S1130A708189882339F0C80141960E946A0981114D
S1130A800E944E020F900FBE81E04FC04C815D81E9
S1130A90452B21F40F900FBE80E047C0A11005C084
S1130AA0CE0101960E94B209A92C0F900FBE0E949C
S1130AB03C070FB6F8940F92F801858D8F3F09F427
S1130AC0158EF801868D8F3F09F4168E0F900FBE98
S1130AD0BE016C5F7F4FCE0101960E94BD0981115A
S1130AE01EC00FB6F8940F92F801828D0F900FBEBE
S1130AF081110FC06C817D81C7010E943E09C8012C
S1130B000E94A3030E940108811190CF0E944E020B
S1130B108DCFC8010E94A3030E94010887CFC8019A
S1130B200E94A3030E94010880E00F900F900F9091
S1130B300F900F90DF91CF911F910F91FF90EF9045
S1130B40DF90CF90BF90AF909F900895E091B6054D
S1130B50F091B7058081811107C08FEF9FEF9093CB
S1130B608E0580938D050895E091B605F091B70543
S1130B700580F681E02D0680F781E02D8281938146
S1130B8090938E0580938D050895CF93DF93EC01A8
S1130B90E091EE05F091EF059383828380919505B2
S1130BA090919605C817D90768F46091EE05709185
S1130BB0EF058091B4059091B5056E5F7F4F0E945B
S1130BC0510117C06091EE057091EF058091B60553
S1130BD09091B7056E5F7F4F0E94510180918D0502
S1130BE090918E05C817D90720F4D0938E05C09331
S1130BF08D05DF91CF9108954F925F926F927F920E
S1130C008F929F92AF92BF92CF92DF92EF92FF9218
S1130C100F931F93CF93DF934C015B012A0139019A
S1130C20C114D10439F4CA010E9406036C0100976F
S1130C3009F4DEC086E290E00E940603EC0100970E
S1130C4071F0D88ECF8A81E0481A5108C40CD51CA3
S1130C50D5018C91898F8C91811105C015C0C60175
S1130C600E943B03C5C0AE01465E5F4FF50131965D
S1130C7027E0CF013191DA013D93AD01DC018C9184
S1130C80882311F02150A9F718A2102F043008F07E
S1130C9013E01E8B5E01B2E0AB0EB11CC5010E94D5
S1130CA02C01CE010C960E942C01D987C88784E0C0
S1130CB090E0811B91099D878C87DB8BCA8B19A2DD
S1130CC01AA21BA21CA21DA2A301B401C6010E9468
S1130CD0A80199838883E114F10419F0F701D18301
S1130CE0C0830FB6F8940F92809197058F5F80931D
S1130CF097058091EE059091EF05892BD1F5D0935E
S1130D00EF05C093EE0580919705813009F040C04E
S1130D108AEC95E00E941E0183ED95E00E941E017D
S1130D208CED95E00E941E0185EE95E00E941E0167
S1130D3081EC95E00E941E0188EB95E00E941E0163
S1130D408BEA95E00E941E0182EA95E00E941E0152
S1130D5088E995E00E941E0181EC95E09093B70527
S1130D608093B60588EB95E09093B5058093B40520
S1130D700FC08091930581110BC0E091EE05F091B5
S1130D80EF058689081720F0D093EF05C093EE0590
S1130D9080918F058F5F80938F058E899091940544
S1130DA0981710F48093940590E09C01220F331F50
S1130DB0220F331F220F331F820F931FB501865357
S1130DC09A4F0E9430010F900FBE809193058823A3
S1130DD059F0E091EE05F091EF058689801730F423
S1130DE00E944E0281E005C081E003C081E001C0A1
S1130DF08FEFDF91CF911F910F91FF90EF90DF90D4
S1130E00CF90BF90AF909F908F907F906F905F90A6
S1130E104F900895AF92BF92CF92DF92EF92FF92DC
S1130E200F93A12CB12CC12CD12CE12CF12C00E07E
S1130E3020E030E045E550E063E871E084EA98E0C2
S1130E400E94FC05813081F4F8948FEF9FEF90931A
S1130E508E0580938D0581E080939305109296050D
S1130E60109295050E9414020F91FF90EF90DF906D
S1130E70CF90BF90AF90089580918C058F5F809341
S1130E808C050895CF92DF92EF92FF920F931F93F8
S1130E90CF93DF9380918C0581119AC08091950541
S1130EA09091960501969093960580939505E09010
S1130EB09505F0909605E114F104B9F48091B60516
S1130EC09091B7052091B4053091B5053093B705DD
S1130ED02093B6059093B5058093B4058091900551
S1130EE08F5F809390050E94A60580918D05909157
S1130EF08E05E816F90608F454C0D12CCC24C3940A
S1130F0001C0DC2CE091B605F091B7058081811118
S1130F1007C08FEF9FEF90938E0580938D0542C09D
S1130F20E091B605F091B7050580F681E02DC68104
S1130F30D7812A813B81E216F30628F430938E058B
S1130F4020938D052FC08E010E5F1F4FC8010E9494
S1130F5082018C899D89892B21F0CE010C960E94F7
S1130F6082012E8980919405821710F420939405B0
S1130F7030E0C901880F991F880F991F880F991FA6
S1130F80820F931FB80186539A4F0E943001E0915B
S1130F90EE05F091EF059E898689981708F0B1CF88
S1130FA0B1CFD12CE091EE05F091EF05868990E068
S1130FB0FC01EE0FFF1FEE0FFF1FEE0FFF1F8E0F42
S1130FC09F1FFC01E653FA4F8081823040F409C030
S1130FD0809192058F5F80939205D12C02C0DD240D
S1130FE0D39480919105882311F0DD24D3948D2D21
S1130FF0DF91CF911F910F91FF90EF90DF90CF90F1
S11310000895DF92EF92FF920F931F93CF93DF9394
S11310100FB6F8940F9280918C05815080938C05C3
S113102080918C05811161C080919705882309F412
S11310305EC00F2EFBEAEF2EF5E0FF2EF02DDD242F
S1131040D39430C0E091B005F091B105C681D78149
S1131050CE010C960E9482018E010E5F1F4FC801C3
S11310600E9482018E8990919405981710F48093C0
S1131070940590E09C01220F331F220F331F220F8F
S1131080331F820F931FB80186539A4F0E94300179
S1131090E091EE05F091EF059E898689981710F08E
S11310A0D0929105F70180818111CCCF8091920576
S11310B0882399F080919205882379F0C1E00E94F9
S11310C042078111C09391058091920581508093CC
S11310D09205809192058111F2CF80919105813022
S11310E041F40E944E0281E005C080E003C080E02C
S11310F001C080E00F900FBEDF91CF911F910F913F
S1131100FF90EF90DF900895CF93DF93EC01009769
S1131110B1F00E943C078091950590919605C80F07
S1131120D91F8091EE059091EF0502960E948201ED
S1131130CE010E94C5050E940108811102C00E94CF
S11311404E02DF91CF9108950F2EFAECEF2EF5E0C9
S1131150FF2EF02DC2EAD5E028C00E943C0718817A
S11311600E940108112309F10FB6F8940F92E0913F
S1131170A705F091A80506811781C80102960E946F
S11311808201809197058150809397058091A105F4
S113119081508093A1050F900FBEF8018789908D2F
S11311A00E943B03C8010E943B038091A105811169
S11311B0D4CFF70180818230C0F30E944E02F5CF74
S11311C080918C05882321F081E080939105089516
S11311D0109291058091940590E0FC01EE0FFF1FA1
S11311E0EE0FFF1FEE0FFF1F8E0F9F1FFC01E65334
S11311F0FA4F8081811117C08091940581508093AA
S113120094058091940590E0FC01EE0FFF1FEE0F12
S1131210FF1FEE0FFF1F8E0F9F1FFC01E653FA4FB7
S11312208081882349F3E0919405F0E0CF01880F91
S1131230991F880F991F880F991FE80FF91FE6530C
S1131240FA4FA181B28112960D90BC91A02DB28368
S1131250A183CF010396A817B90731F412968D9193
S11312609C911397928381830180F281E02D868182
S113127097819093EF058093EE050895CF93DF93C4
S1131280EB016091EE057091EF05645F7F4F0E9462
S113129051018091EE059091EF0502960E94820122
S11312A0CF3F8FEFD80759F46091EE057091EF05A9
S11312B06E5F7F4F88E995E00E94300108C08091FD
S11312C09505909196058C0F9D1F0E94C505DF9191
S11312D0CF9108950F931F93CF93DF93DC0115965D
S11312E0ED91FC911697C681D7818E01045F1F4F43
S11312F0C8010E94820180918C0581111CC00A5092
S11313001109C8010E9482018E8990919405981751
S113131010F48093940590E09C01220F331F220F58
S1131320331F220F331F820F931FB80186539A4F26
S11313300E94300105C0B8018BEA95E00E9430019B
S1131340E091EE05F091EF059E898689891720F4D6
S113135081E08093910501C080E0DF91CF911F91DE
S11313600F91089520919005FC012083209195050B
S1131370309196053283218308950FB6F8940F9225
S11313804091950550919605DB012D913C912F3F9D
S1131390BFEF3B0719F1E0919005DC01FC91FE17CA
S11313A039F01196ED91FC9112974E175F07C0F436
S11313B0DC011196ED91FC911297DA01AE1BBF0B83
S11313C0A217B30778F4E41BF50B2E0F3F1FFB01A4
S11313D0318320830E94B20980E005C080E003C00D
S11313E081E001C081E00F900FBE089581E08093F9
S11313F091050895CF93DF93CDB7DEB760970FB60D
S1131400F894DEBF0FBECDBF20E04AE050E0BE013D
S11314106F5F7F4F8091F0059091F1050E94580411
S113142088EE93E00E94840820E04AE050E0BE0188
S11314306B5F7F4F8091F2059091F3050E945804F1
S113144088EE93E00E94840820E04AE050E0BE0168
S1131450695F7F4F8091F4059091F5050E945804CF
S113146088EE93E00E94840820E04AE050E0BE0148
S1131470635F7F4F8091F6059091F7050E945804B1
S113148084E690E00E948408BFCF9093C5008093C7
S1131490C4008EE08093C20088E18093C100089567
S11314A0CF93C82F8A3019F48DE00E94500AE0ECE3
S11314B0F0E0908195FFFDCFC093C600CF910895D1
S11314C0E0ECF0E080818823ECF78091C600089579
S11314D0CF93DF9300D000D0CDB7DEB720E04FEF3D
S11314E05FEFBE016F5F7F4F8091F6059091F70526
S11314F00E94FA04882391F388E891E00E948A0A02
S1131500EDCFFB01DC0102C001900D92415050402F
S1131510D8F708950F931F93CF93DF93E091FA05C3
S1131520F091FB05238121FF1BC0EC0100E010E0DA
S113153089916091FA057091FB05DB011896ED9194
S1131540FC911997882331F00995892B89F30FEFC2
S11315501FEFEECF8AE00995892B11F4C80102C070
S11315608FEF9FEFDF91CF911F910F910895F89422
S1051570FFCFA7
S113157200000001000000000000600A00000000FA
S1131582000200000000500A000000000A48616CDA
S11315926C20456666656374204D65737361676587
S11315A2207265636569766564000A4C4344204D84
S11315B26573736167652072656365697665640046
S11315C25254430048616C6C456666656374004C12
S11315D2434400576946690054657374000A5254BF
S11315E243204D657373616765207265636569762F
S11315F265640049444C45000A2057694669204DF8
S113160265737361676520726563656976656400F5
S9030000FC
