S01A0000486F6D65536563757269747953797374656D2E73726563A4
S11300000C9434000C9451000C9451000C94510045
S11300100C9451000C9451000C9451000C94510018
S11300200C9451000C9451000C9451000C9407034F
S11300300C9451000C9451000C9451000C945100F8
S11300400C9451000C9451000C9451000C945100E8
S11300500C9451000C9451000C9451000C945100D8
S11300600C9451000C94510011241FBECFEFD8E022
S1130070DEBFCDBF11E0A0E0B1E0E6EEF7E102C0E3
S113008005900D92A435B107D9F725E0A4E5B1E0B8
S113009001C01D92A23BB207E1F70E9498000C94A4
S11300A0F10B0C940000CF93DF9300D000D0CDB7B8
S11300B0DEB70CE111E020E04FEF5FEFBE016F5FB0
S11300C07F4F8091A4059091A5050E940F04882379
S11300D091F38A818F9389818F931F930F930E9449
S11300E02E090F900F900F900F90E5CFCF93DF93D1
S11300F000D0CDB7DEB703E311E020E04FEF5FEFB0
S1130100BE016F5F7F4F8091A6059091A7050E9465
S11301100F04882391F38A818F9389818F931F938E
S11301200F930E942E090F900F900F900F90E5CF20
S1130130AF92BF92CF92DF92EF92FF920F9387E636
S113014090E00E94EF088EE091E09093AF058093D9
S1130150AE0580E091E09093AD058093AC0540E05E
S113016064E082E00E94E1039093A5058093A405D6
S113017040E066E082E00E94E1039093A905809349
S1130180A80540E062E082E00E94E1039093A705A5
S11301908093A60540E064E082E00E94E10390932E
S11301A0AB058093AA05A12CB12CC12CD12CE12C38
S11301B0F12C01E020E030E045E550E066E371E039
S11301C08EE091E00E94110520E030E045E550E02A
S11301D06AE371E083E590E00E94110520E030E0DD
S11301E045E550E065E471E086E790E00E94110582
S11301F020E030E045E550E069E471E082E199E017
S11302000E9411050E941F0680E090E00F91FF906C
S1130210EF90DF90CF90BF90AF900895CF93DF938E
S113022000D000D000D0CDB7DEB720E04FEF5FEFB5
S1130230BE016F5F7F4F8091A8059091A9050E9430
S11302400F04F3CFFC010396928381832FEF3FEFDA
S113025034832383968385839087878310820895CC
S1130260FC01118610860895CF93DF939C01FB0156
S1130270DC011196CD91DC911297D383C2838C81DA
S11302809D81958384838C819D81DC0113967C936D
S11302906E9312977D836C8331872087F901808167
S11302A08F5F8083DF91CF910895CF93DF93EB012C
S11302B0488159814F3F2FEF520721F4FC01A78158
S11302C0B0850DC0DC0113961296ED91FC91139745
S11302D0208131814217530710F0DF01F5CF1296C8
S11302E0ED91FC911397FB83EA83D583C483BD838B
S11302F0AC831396DC93CE93129799878887FC017D
S113030020812F5F2083DF91CF910895CF93DF93D6
S1130310FC01A085B185C281D381848195819D83AF
S11303208C83C481D581828193819B838A83119636
S1130330CD91DC911297CE17DF0731F48C819D812A
S113034012969C938E931197118610868C918150EE
S11303508C93DF91CF91089531E1FC013083319783
S113036022E220833197A3E3A083319760833197FE
S1130370708331971082319760E8608331971082DF
S1130380319762E06083319763E06083319764E082
S11303906083319765E06083319766E060833197CD
S11303A067E06083319768E06083319769E0608338
S11303B0319760E1608331973083319732E1308344
S11303C0319733E13083319734E13083319735E12C
S11303D03083319736E13083319737E13083319779
S11303E038E13083319739E13083319730E230831B
S11303F0319731E2308331972083319723E2208390
S11304003197408331975083319726E22083319787
S113041027E22083319728E22083319729E2208341
S1130420319720E32083319721E320838697089531
S1130430109289008CE7809388008BE08093810080
S1130440EFE6F0E0808182608083A091A205B09104
S1130450A305CD91CDBFDD91DEBFFF91EF91DF917B
S1130460CF91BF91AF919F918F917F916F915F9148
S11304704F913F912F911F910F91FF90EF90DF903B
S1130480CF90BF90AF909F908F907F906F905F9030
S11304904F903F902F901F900F900FBE0F90089594
S11304A081E008950F920FB6F8940F921F921124D1
S11304B02F923F924F925F926F927F928F929F9270
S11304C0AF92BF92CF92DF92EF92FF920F931F935E
S11304D02F933F934F935F936F937F938F939F9348
S11304E0AF93BF93CF93DF93EF93FF93A091A205B4
S11304F0B091A3050DB60D920EB60D920E94D507CC
S1130500A091A205B091A305CD91CDBFDD91DEBF31
S1130510FF91EF91DF91CF91BF91AF919F918F9117
S11305207F916F915F914F913F912F911F910F9107
S1130530FF90EF90DF90CF90BF90AF909F908F90FF
S11305407F906F905F904F903F902F901F900F90EF
S11305500FBE0F9008950F920FB6F8940F921F924A
S113056011242F923F924F925F926F927F928F92BB
S11305709F92AF92BF92CF92DF92EF92FF920F932E
S11305801F932F933F934F935F936F937F938F9317
S11305909F93AF93BF93CF93DF93EF93FF93A09178
S11305A0A205B091A3050DB60D920EB60D920E9450
S11305B0570681110E94D507A091A205B091A30509
S11305C0CD91CDBFDD91DEBFFF91EF91DF91CF9152
S11305D0BF91AF919F918F917F916F915F914F9157
S11305E03F912F911F910F91FF90EF90DF90CF904B
S11305F0BF90AF909F908F907F906F905F904F903F
S11306003F902F901F900F900FBE0F9008950E945F
S1130610AB021895CF93DF93EC010E9451068091B1
S1130620540190915501892B31F489E591E090931F
S113063055018093540140915601509157019E01F8
S1130640240F351F273E83E0380770F44217530701
S113065070F4C0915401D0915501C40FD51F30934B
S113066057012093560105C0C0E0D0E002C0C0E0AD
S1130670D0E00E941607CE01DF91CF91089508952E
S1130680FC01CB01448D4423A1F050E02681378145
S1130690240F351F3783268362817381261737071A
S11306A020F02081318137832683668177810E94FF
S11306B0250908950F931F93CF93DF93EC010FB691
S11306C0F8940F928E8D1816B4F48989882399F0C2
S11306D08E010F5E1F4F03C08989882361F0C80112
S11306E00E945F0881110E94EB088E8D81508E8FCD
S11306F08E8D18168CF38FEF8E8F0F900FBE0FB662
S1130700F8940F928D8D1816B4F48885882399F087
S11307108E01085F1F4F03C08885882361F0C801DC
S11307200E945F0881110E94EB088D8D81508D8F8E
S11307308D8D18168CF38FEF8D8F0F900FBEDF9178
S1130740CF911F910F910895CF93DF93EC010FB6D2
S1130750F8940F92888199812C8D30E07B8D729F63
S1130760A001739F500D1124FC01E40FF51FFB83BE
S1130770EA831A8E9D838C83421B530B840F951F2F
S11307809F838E838FEF8D8F8E8F61110CC0888530
S1130790882389F0CE0108960E945F08813059F4BD
S11307A00E94520208C0CE0108960E942201CE0186
S11307B041960E9422010F900FBE81E0DF91CF91FC
S11307C008950F931F93CF93DF93082F162F66235B
S11307D0C9F0869FC001112480960E940A03EC018F
S11307E0009721F416C0D983C88305C09C01215EFB
S11307F03F4F398328830B8F1C8F61E0CE010E9409
S1130800A40307C08FE190E00E940A03EC01009763
S113081051F7CE01DF91CF911F910F9108959F92CF
S1130820AF92BF92CF92DF92EF92FF920F931F93FA
S1130830CF93DF9300D000D01F92CDB7DEB78C01E9
S11308406B015D834C83B22EA12C992493947C017B
S113085081E1E80EF11C0FB6F8940F92F801828D35
S1130860882349F1E680F780B601C8010E9440035D
S1130870B11010C0F801828D8150828F8085882349
S1130880B1F0C80108960E945F08813081F40E948B
S113089052020DC0F801F782E6828189882339F07B
S11308A0C80141960E945F0881110E9452020F9074
S11308B00FBE81E04FC04C815D81452B21F40F9028
S11308C00FBE80E047C0A11005C0CE0101960E9472
S11308D0A708A92C0F900FBE0E9451060FB6F894DA
S11308E00F92F801858D8F3F09F4158EF801868DDE
S11308F08F3F09F4168E0F900FBEBE016C5F7F4FC1
S1130900CE0101960E94B20881111EC00FB6F89460
S11309100F92F801828D0F900FBE81110FC06C8170
S11309207D81C7010E943308C8010E945A030E94B6
S11309301607811190CF0E9452028DCFC8010E94E8
S11309405A030E94160787CFC8010E945A030E94C7
S1130950160780E00F900F900F900F900F90DF918B
S1130960CF911F910F91FF90EF90DF90CF90BF90A8
S1130970AF909F900895E0916A05F0916B05808196
S1130980811107C08FEF9FEF90934205809341053B
S11309900895E0916A05F0916B050580F681E02DDC
S11309A00680F781E02D82819381909342058093A4
S11309B041050895CF93DF93EC01E091A205F091F6
S11309C0A305938382838091490590914A05C817B2
S11309D0D90768F46091A2057091A3058091680518
S11309E0909169056E5F7F4F0E94550117C0609119
S11309F0A2057091A30580916A0590916B056E5FC5
S1130A007F4F0E9455018091410590914205C8177E
S1130A10D90720F4D0934205C0934105DF91CF91CB
S1130A2008954F925F926F927F928F929F92AF92AE
S1130A30BF92CF92DF92EF92FF920F931F93CF93C7
S1130A40DF934C015B012A013901C114D10439F44B
S1130A50CA010E940A036C01009709F4DEC086E211
S1130A6090E00E940A03EC01009771F0D88ECF8ABF
S1130A7081E0481A5108C40CD51CD5018C91898F8A
S1130A808C91811105C015C0C6010E943F03C5C0E9
S1130A90AE01465E5F4FF501319627E0CF013191FB
S1130AA0DA013D93AD01DC018C91882311F02150D2
S1130AB0A9F718A2102F043008F013E01E8B5E0172
S1130AC0B2E0AB0EB11CC5010E943001CE010C9600
S1130AD00E943001D987C88784E090E0811B910986
S1130AE09D878C87DB8BCA8B19A21AA21BA21CA21E
S1130AF01DA2A301B401C6010E94AC01998388839D
S1130B00E114F10419F0F701D183C0830FB6F8940E
S1130B100F9280914B058F5F80934B058091A205C6
S1130B209091A305892BD1F5D093A305C093A20579
S1130B3080914B05813009F040C08EE795E00E941A
S1130B40220187E895E00E94220180E995E00E9455
S1130B50220189E995E00E94220185E795E00E943F
S1130B6022018CE695E00E9422018FE595E00E9427
S1130B70220186E595E00E9422018CE495E00E9422
S1130B80220185E795E090936B0580936A058CE6D6
S1130B9095E090936905809368050FC0809147059F
S1130BA081110BC0E091A205F091A3058689081775
S1130BB020F0D093A305C093A205809143058F5FD5
S1130BC0809343058E8990914805981710F480937B
S1130BD0480590E09C01220F331F220F331F220F80
S1130BE0331F820F931FB50182589A4F0E9434011C
S1130BF00F900FBE80914705882359F0E091A2051C
S1130C00F091A3058689801730F40E94520281E096
S1130C1005C081E003C081E001C08FEFDF91CF9177
S1130C201F910F91FF90EF90DF90CF90BF90AF9006
S1130C309F908F907F906F905F904F900895AF92A8
S1130C40BF92CF92DF92EF92FF920F93A12CB12C1F
S1130C50C12CD12CE12CF12C00E020E030E045E562
S1130C6050E06EE471E089E997E00E94110581305B
S1130C7081F4F8948FEF9FEF9093420580934105A0
S1130C8081E08093470510924A05109249050E941D
S1130C9018020F91FF90EF90DF90CF90BF90AF902C
S1130CA00895809140058F5F809340050895CF9209
S1130CB0DF92EF92FF920F931F93CF93DF93809174
S1130CC0400581119AC08091490590914A05019689
S1130CD090934A0580934905E0904905F0904A05B0
S1130CE0E114F104B9F480916A0590916B052091A7
S1130CF068053091690530936B0520936A059093DC
S1130D00690580936805809144058F5F809344054D
S1130D100E94BB048091410590914205E816F906B2
S1130D2008F454C0D12CCC24C39401C0DC2CE09131
S1130D306A05F0916B058081811107C08FEF9FEFE9
S1130D40909342058093410542C0E0916A05F09179
S1130D506B050580F681E02DC681D7812A813B8110
S1130D60E216F30628F430934205209341052FC080
S1130D708E010E5F1F4FC8010E9486018C899D89D8
S1130D80892B21F0CE010C960E9486012E89809138
S1130D904805821710F42093480530E0C901880FF4
S1130DA0991F880F991F880F991F820F931FB801ED
S1130DB082589A4F0E943401E091A205F091A30554
S1130DC09E898689981708F0B1CFB1CFD12CE091D4
S1130DD0A205F091A305868990E0FC01EE0FFF1FA8
S1130DE0EE0FFF1FEE0FFF1F8E0F9F1FFC01E25837
S1130DF0FA4F8081823040F409C0809146058F5FAC
S1130E0080934605D12C02C0DD24D39480914505FE
S1130E10882311F0DD24D3948D2DDF91CF911F9180
S1130E200F91FF90EF90DF90CF900895DF92EF92B3
S1130E30FF920F931F93CF93DF930FB6F8940F9203
S1130E408091400581508093400580914005811137
S1130E5061C080914B05882309F45EC00F2EFFE525
S1130E60EF2EF5E0FF2EF02DDD24D39430C0E09179
S1130E706405F0916505C681D781CE010C960E9468
S1130E8086018E010E5F1F4FC8010E9486018E8964
S1130E9090914805981710F48093480590E09C01C0
S1130EA0220F331F220F331F220F331F820F931F72
S1130EB0B80182589A4F0E943401E091A205F09142
S1130EC0A3059E898689981710F0D0924505F701ED
S1130ED080818111CCCF80914605882399F080913F
S1130EE04605882379F0C1E00E9457068111C0931A
S1130EF045058091460581508093460580914605BD
S1130F008111F2CF80914505813041F40E94520253
S1130F1081E005C080E003C080E001C080E00F9064
S1130F200FBEDF91CF911F910F91FF90EF90DF9053
S1130F3008950F2EFEE7EF2EF5E0FF2EF02DC6E507
S1130F40D5E028C00E94510618810E94160711237B
S1130F5009F10FB6F8940F92E0915B05F0915C05EE
S1130F6006811781C80102960E94860180914B0573
S1130F70815080934B058091550581508093550590
S1130F800F900FBEF8018789908D0E943F03C8011E
S1130F900E943F03809155058111D4CFF7018081D0
S1130FA08230C0F30E945202F5CF8091400588231D
S1130FB021F081E0809345050895109245058091C4
S1130FC0480590E0FC01EE0FFF1FEE0FFF1FEE0F30
S1130FD0FF1F8E0F9F1FFC01E258FA4F8081811181
S1130FE017C0809148058150809348058091480539
S1130FF090E0FC01EE0FFF1FEE0FFF1FEE0FFF1F2F
S11310008E0F9F1FFC01E258FA4F8081882349F319
S1131010E0914805F0E0CF01880F991F880F991FD0
S1131020880F991FE80FF91FE258FA4FA181B28186
S113103012960D90BC91A02DB283A183CF0103968B
S1131040A817B90731F412968D919C911397928346
S113105081830180F281E02D868197819093A3059D
S11310608093A2050895CF93DF93EB016091A205CD
S11310707091A305645F7F4F0E9455018091A20582
S11310809091A30502960E948601CF3F8FEFD80767
S113109059F46091A2057091A3056E5F7F4F8CE4B3
S11310A095E00E94340108C08091490590914A0559
S11310B08C0F9D1F0E94DA04DF91CF9108950F9346
S11310C01F93CF93DF93DC011596ED91FC91169756
S11310D0C681D7818E01045F1F4FC8010E9486011B
S11310E08091400581111CC00A501109C8010E9459
S11310F086018E8990914805981710F480934805CD
S113110090E09C01220F331F220F331F220F331F45
S1131110820F931FB80182589A4F0E94340105C070
S1131120B8018FE595E00E943401E091A205F091A9
S1131130A3059E898689891720F481E0809345055B
S113114001C080E0DF91CF911F910F91089520910C
S11311504405FC0120832091490530914A053283DE
S1131160218308950FB6F8940F9240914905509148
S11311704A05DB012D913C912F3FBFEF3B0719F14D
S1131180E0914405DC01FC91FE1739F01196ED91D4
S1131190FC9112974E175F07C0F4DC011196ED9194
S11311A0FC911297DA01AE1BBF0BA217B30778F4B8
S11311B0E41BF50B2E0F3F1FFB01318320830E949C
S11311C0A70880E005C080E003C081E001C081E0A1
S11311D00F900FBE089581E0809345050895909384
S11311E0C5008093C4008EE08093C20088E18093A0
S11311F0C1000895CF93C82F8A3019F48DE00E945E
S1131200FA08E0ECF0E0908195FFFDCFC093C600B2
S1131210CF910895E0ECF0E080818823ECF7809191
S1131220C6000895CF93DF9300D000D0CDB7DEB7CA
S113123020E04FEF5FEFBE016F5F7F4F8091AA0503
S11312409091AB050E940F04F3CFFB01DC0102C0B7
S113125001900D9241505040D8F70895A0E0B0E0BD
S1131260E4E3F9E00C94CA0BFE01359661917191A7
S1131270AF018091AE059091AF050E944209E2E072
S11312800C94E60BACE0B0E0E8E4F9E00C94BA0BA3
S11312907C016B018A01FC0117821682838181FF24
S11312A0BDC1CE0101964C01F7019381F60193FD76
S11312B0859193FF81916F01882309F4ABC1853235
S11312C039F493FD859193FF81916F01853229F45F
S11312D0B70190E00E942A0BE7CF512C312C20E07B
S11312E02032A0F48B3269F030F4803259F083322A
S11312F069F420612CC08D3239F0803339F42160D7
S113130026C02260246023C0286021C027FD27C096
S113131030ED380F3A3078F426FF06C0FAE05F9ECD
S1131320300D1124532E13C08AE0389E300D112441
S1131330332E20620CC08E3221F426FD6BC1206452
S113134006C08C3611F4206802C0883641F4F601D8
S113135093FD859193FF81916F018111C1CF982FE6
S11313609F7D9554933028F40C5F1F4FFFE3F9835E
S11313700DC0833631F0833771F0833509F05BC0DB
S113138022C0F801808189830E5F1F4F4424439457
S1131390512C540115C03801F2E06F0E711CF80194
S11313A0A080B18026FF03C0652D70E002C06FEFFE
S11313B07FEFC5012C870E941F0B2C0183012C8514
S11313C02F77222E17C03801F2E06F0E711CF8013E
S11313D0A080B18026FF03C0652D70E002C06FEFCE
S11313E07FEFC5012C870E94140B2C012C852068EB
S11313F0222E830123FC1BC0832D90E0481659063E
S1131400B0F4B70180E290E00E942A0B3A94F4CF42
S1131410F50127FC859127FE81915F01B70190E0DA
S11314200E942A0B31103A94F1E04F1A51084114EA
S1131430510471F7E5C0843611F0893639F5F801A5
S113144027FF07C060817181828193810C5F1F4FE8
S113145008C060817181882777FD8095982F0E5F81
S11314601F4F2F76B22E97FF09C0909580957095E7
S113147061957F4F8F4F9F4F2068B22E2AE030E056
S1131480A4010E945C0BA82EA81844C0853729F437
S11314902F7EB22E2AE030E025C0F22FF97FBF2E36
S11314A08F36C1F018F4883579F0B4C0803719F05C
S11314B0883721F0AFC02F2F2061B22EB4FE0DC0AB
S11314C08B2D8460B82E09C024FF0AC09F2F96601C
S11314D0B92E06C028E030E005C020E130E002C0AB
S11314E020E132E0F801B7FE07C06081718182819A
S11314F093810C5F1F4F06C06081718180E090E092
S11315000E5F1F4FA4010E945C0BA82EA818FB2D90
S1131510FF77BF2EB6FE0BC02B2D2E7FA51450F4E3
S1131520B4FE0AC0B2FC08C02B2D2E7E05C07A2C56
S11315302B2D03C07A2C01C0752C24FF0DC0FE0195
S1131540EA0DF11D8081803311F4297E09C022FF48
S113155006C07394739404C0822F867809F0739440
S113156023FD13C020FF06C05A2C731418F4530C27
S11315705718732C731468F4B70180E290E02C8739
S11315800E942A0B73942C85F5CF731410F437182A
S113159001C0312C24FF12C0B70180E390E02C87F6
S11315A00E942A0B2C8522FF17C021FF03C088E567
S11315B090E002C088E790E0B7010CC0822F8678E3
S11315C059F021FD02C080E201C08BE227FD8DE2CB
S11315D0B70190E00E942A0BA51438F4B70180E308
S11315E090E00E942A0B5A94F7CFAA94F401EA0DD2
S11315F0F11D8081B70190E00E942A0BA110F5CF64
S1131600332009F451CEB70180E290E00E942A0B06
S11316103A94F6CFF7018681978102C08FEF9FEF4E
S11316202C96E2E10C94D60BFC01059061507040BD
S11316300110D8F7809590958E0F9F1F0895FC0197
S11316406150704001900110D8F7809590958E0FED
S11316509F1F08950F931F93CF93DF93182F092F84
S1131660EB018B8181FD03C08FEF9FEF20C082FFD0
S113167010C04E815F812C813D81421753077CF459
S1131680E881F9819F012F5F3F4F398328831083BD
S113169006C0E885F985812F0995892B29F72E81C4
S11316A03F812F5F3F4F3F832E83812F902FDF9108
S11316B0CF911F910F910895FA01AA27283051F173
S11316C0203181F1E8946F936E7F6E5F7F4F8F4F6F
S11316D09F4FAF4FB1E03ED0B4E03CD0670F781FCE
S11316E0891F9A1FA11D680F791F8A1F911DA11DB3
S11316F06A0F711D811D911DA11D20D009F46894EC
S11317003F912AE0269F11243019305D3193DEF693
S1131710CF010895462F4770405D4193B3E00FD049
S1131720C9F7F6CF462F4F70405D4A3318F0495D34
S113173031FD4052419302D0A9F7EACFB4E0A69517
S11317409795879577956795BA95C9F70097610539
S1131750710508959B01AC010A2E0694579547958F
S113176037952795BA95C9F7620F731F841F951F84
S1131770A01D08952F923F924F925F926F927F9295
S11317808F929F92AF92BF92CF92DF92EF92FF928D
S11317900F931F93CF93DF93CDB7DEB7CA1BDB0B39
S11317A00FB6F894DEBF0FBECDBF09942A883988DE
S11317B048885F846E847D848C849B84AA84B984E5
S11317C0C884DF80EE80FD800C811B81AA81B981F1
S11317D0CE0FD11D0FB6F894DEBF0FBECDBFED0105
S10917E00895F894FFCF08
S11317E6000000010000000000000A0900000000DB
S11317F6000200000000FA080000000048616C6C5A
S11318062065666665637420766F6C74616765200F
S11318162564002573005254430048616C6C456688
S113182666656374004C434400576946690049443D
S10718364C45000019
S9030000FC
