S01A0000486F6D65536563757269747953797374656D2E73726563A4
S11300000C9434000C9451000C9451000C94510045
S11300100C9451000C9451000C9451000C94510018
S11300200C9451000C9451000C9451000C948F02C8
S11300300C9451000C9451000C9451000C945100F8
S11300400C9451000C9451000C9451000C945100E8
S11300500C9451000C9451000C9451000C945100D8
S11300600C9451000C94510011241FBECFEFD8E022
S1130070DEBFCDBF11E0A0E0B1E0E4E4F2E102C0F4
S113008005900D92AC33B107D9F727E0ACE3B1E0AA
S113009001C01D92A835B207E1F70E9476000C94C6
S11300A020090C940000259A089595B180E28927CF
S11300B085B90895CF93DF9300D0CDB7DEB78CE137
S11300C091E09F938F930E945D060E9453000E94CB
S11300D032049A8389830F900F900E94550068EE32
S11300E073E0CE0101960E949A05F7CFAF92BF92BA
S11300F0CF92DF92EF92FF920F9387E690E00E94F7
S11301003A068EE091E0909355078093540780E07F
S113011091E09093530780935207A12CB12CC12CEA
S1130120D12CE12CF12C00E020E030E045E550E05A
S113013062E371E08AE590E00E9408030E94FA03FA
S113014080E090E00F91FF90EF90DF90CF90BF9010
S1130150AF900895FC010396928381832FEF3FEFC4
S113016034832383968385839087878310820895BD
S1130170FC01118610860895CF93DF939C01FB0147
S1130180DC011196CD91DC911297D383C2838C81CB
S11301909D81958384838C819D81DC0113967C935E
S11301A06E9312977D836C8331872087F901808158
S11301B08F5F8083DF91CF910895CF93DF93EB011D
S11301C0488159814F3F2FEF520721F4FC01A78149
S11301D0B0850DC0DC0113961296ED91FC91139736
S11301E0208131814217530710F0DF01F5CF1296B9
S11301F0ED91FC911397FB83EA83D583C483BD837C
S1130200AC831396DC93CE93129799878887FC016D
S113021020812F5F2083DF91CF910895CF93DF93C7
S1130220FC01A085B185C281D381848195819D83A0
S11302308C83C481D581828193819B838A83119627
S1130240CD91DC911297CE17DF0731F48C819D811B
S113025012969C938E931197118610868C918150DF
S11302608C93DF91CF91089531E1FC013083319774
S113027022E220833197A3E3A083319760833197EF
S1130280708331971082319760E8608331971082D0
S1130290319762E06083319763E06083319764E073
S11302A06083319765E06083319766E060833197BE
S11302B067E06083319768E06083319769E0608329
S11302C0319760E1608331973083319732E1308335
S11302D0319733E13083319734E13083319735E11D
S11302E03083319736E13083319737E1308331976A
S11302F038E13083319739E13083319730E230830C
S1130300319731E2308331972083319723E2208380
S11303103197408331975083319726E22083319778
S113032027E22083319728E22083319729E2208332
S1130330319720E32083319721E320838697089522
S1130340109289008CE7809388008BE08093810071
S1130350EFE6F0E0808182608083A0915007B09145
S11303605107CD91CDBFDD91DEBFFF91EF91DF91BC
S1130370CF91BF91AF919F918F917F916F915F9139
S11303804F913F912F911F910F91FF90EF90DF902C
S1130390CF90BF90AF909F908F907F906F905F9021
S11303A04F903F902F901F900F900FBE0F90089585
S11303B081E008950F920FB6F8940F921F921124C2
S11303C02F923F924F925F926F927F928F929F9261
S11303D0AF92BF92CF92DF92EF92FF920F931F934F
S11303E02F933F934F935F936F937F938F939F9339
S11303F0AF93BF93CF93DF93EF93FF93A0915007F5
S1130400B09151070DB60D920EB60D920E94DC0507
S1130410A0915007B0915107CD91CDBFDD91DEBFC2
S1130420FF91EF91DF91CF91BF91AF919F918F9108
S11304307F916F915F914F913F912F911F910F91F8
S1130440FF90EF90DF90CF90BF90AF909F908F90F0
S11304507F906F905F904F903F902F901F900F90E0
S11304600FBE0F9008950F920FB6F8940F921F923B
S113047011242F923F924F925F926F927F928F92AC
S11304809F92AF92BF92CF92DF92EF92FF920F931F
S11304901F932F933F934F935F936F937F938F9308
S11304A09F93AF93BF93CF93DF93EF93FF93A09169
S11304B05007B09151070DB60D920EB60D920E94E1
S11304C03C0481110E94DC05A0915007B0915107B2
S11304D0CD91CDBFDD91DEBFFF91EF91DF91CF9143
S11304E0BF91AF919F918F917F916F915F914F9148
S11304F03F912F911F910F91FF90EF90DF90CF903C
S1130500BF90AF909F908F907F906F905F904F902F
S11305103F902F901F900F900FBE0F9008950E9450
S113052033021895CF93DF93EC010E942C04809141
S11305303C0190913D01892B31F481E491E0909349
S11305403D0180933C0140913E0150913F019E0149
S1130550240F351F2B3D85E0380770F442175307ED
S113056070F4C0913C01D0913D01C40FD51F30936C
S11305703F0120933E0105C0C0E0D0E002C0C0E0CE
S1130580D0E00E941705CE01DF91CF910895089520
S1130590C7E4D7E08881823008F4FFCF0E94DA01F3
S11305A0F9CFCF93DF93EC01E0915007F09151071D
S11305B0938382838091250790912607C817D907D2
S11305C068F46091500770915107809131079091C0
S11305D032076E5F7F4F0E94DD0017C060915007A5
S11305E07091510780913307909134076E5F7F4F6C
S11305F00E94DD0080911D0790911E07C817D9073E
S113060020F4D0931E07C0931D07DF91CF91089566
S11306105F926F927F928F929F92AF92BF92CF928E
S1130620DF92EF92FF920F931F93CF93DF934C01CE
S1130630EB013A015901502EC114D10439F4CA0115
S11306400E9492026C01009709F4A5C086E290E032
S11306500E9492028C01009779F0FC01D08EC78A27
S1130660F1E06F1A7108C60CD71C8881F801818FDC
S11306708881811105C010C0C6010E94C7028BC0C9
S1130680F8017A96219687E0DE01999191939C91E5
S1130690992311F08150C1F7F80110A2168AE801DC
S11306A02296CE010E94B800C8010C960E94B800A0
S11306B0F8011187008781E090E095878487138B88
S11306C0028B11A212A213A214A215A2A501B401B5
S11306D0C6010E943401F80191838083E114F1047E
S11306E019F0F701118300830FB6F8940F928091EB
S11306F027078F5F809327078091500790915107B8
S1130700892B49F4109351070093500780912707D0
S1130710813081F442C08091230781110BC0E091A4
S11307205007F09151078689581620F0109351070D
S11307300093500780911F078F5F80931F07F80174
S1130740868990912407981710F48093240790E0E9
S11307509C01220F331F220F331F220F331F820FDE
S1130760931FBE01895B984F0E94BC000F900FBE7F
S113077080912307882359F0E0915007F0915107A5
S11307808689851530F40E94DA0181E023C081E076
S113079021C081E01FC08FEF1DC087E497E00E9455
S11307A0AA008EE397E00E94AA0085E397E00E94E6
S11307B0AA0088E297E00E94AA008EE397E0909353
S11307C034078093330785E397E09093320780934F
S11307D03107B0CFDF91CF911F910F91FF90EF9030
S11307E0DF90CF90BF90AF909F908F907F906F904D
S11307F05F900895AF92BF92CF92DF92EF92FF92F3
S11308000F93A12CB12CC12CD12CE12CF12C00E0A4
S113081020E030E045E550E066E371E088EC92E0EA
S11308200E940803813081F4F8948FEF9FEF909336
S11308301E0780931D0781E08093230710922607EB
S1130840109225070E94A0010F91FF90EF90DF9076
S1130850CF90BF90AF90089580911C078F5F8093D5
S11308601C0708950FB6F8940F9280912507909174
S113087026070F900FBE0895CF92DF92EF92FF925A
S11308800F931F93CF93DF9380911C078111B6C000
S113089080912507909126070196909326078093CF
S11308A02507E0902507F0902607E114F10499F557
S11308B080913307909134072091310730913207AA
S11308C03093340720933307909332078093310792
S11308D0809120078F5F80932007E0913307F09188
S11308E034078081811107C08FEF9FEF90931E071B
S11308F080931D0710C0E0913307F0913407058001
S1130900F681E02D0680F781E02D8281938190931A
S11309101E0780931D0780911D0790911E07E816FE
S1130920F90608F454C0D12CCC24C39401C0DC2CA7
S1130930E0913307F09134078081811107C08FEF74
S11309409FEF90931E0780931D0742C0E0913307E9
S1130950F09134070580F681E02DC681D7812A8184
S11309603B81E216F30628F430931E0720931D07FB
S11309702FC08E010E5F1F4FC8010E940E018C898B
S11309809D89892B21F0CE010C960E940E012E899F
S113099080912407821710F42093240730E0C901C2
S11309A0880F991F880F991F880F991F820F931F13
S11309B0B801895B984F0E94BC00E0915007F09108
S11309C051079E898689981708F0B1CFB1CFD12CF1
S11309D0E0915007F0915107868990E0FC01EE0FF9
S11309E0FF1FEE0FFF1FEE0FFF1F8E0F9F1FFC0157
S11309F0E95BF84F8081823040F409C0809122077E
S1130A008F5F80932207D12C02C0DD24D394809180
S1130A102107882311F0DD24D3948D2DDF91CF910C
S1130A201F910F91FF90EF90DF90CF900895DF9288
S1130A30EF92FF920F931F93CF93DF930FB6F89427
S1130A400F9280911C07815080931C0780911C0792
S1130A50811161C080912707882309F45EC00F2E9D
S1130A60F8E2EF2EF7E0FF2EF02DDD24D39430C012
S1130A70E0912D07F0912E07C681D781CE010C9607
S1130A800E940E018E010E5F1F4FC8010E940E01CD
S1130A908E8990912407981710F48093240790E08E
S1130AA09C01220F331F220F331F220F331F820F8B
S1130AB0931FB801895B984F0E94BC00E0915007D6
S1130AC0F09151079E898689981710F0D0922107DA
S1130AD0F70180818111CCCF80912207882399F07E
S1130AE080912207882379F0C1E00E943C0481119F
S1130AF0C09321078091220781508093220780911F
S1130B0022078111F2CF80912107813041F40E94A4
S1130B10DA0181E005C080E003C080E001C080E02C
S1130B200F900FBEDF91CF911F910F91FF90EF9027
S1130B30DF9008950F931F93CF93DF938C01EB0104
S1130B400E942C048091250790912607F8012081AA
S1130B503181C20FD31F8217930748F4C217D307FA
S1130B6010F5D183C0838C179D0790F407C0C2177A
S1130B70D307A8F08C179D0790F015C080915007FB
S1130B809091510702960E940E01CE010E94D1025B
S1130B900E94170581110BC00E94DA0108C0F801F8
S1130BA0D183C083EBCFF801D183C083F1CFDF9130
S1130BB0CF911F910F91089580911C07882321F0F4
S1130BC081E08093210708951092210780912407E2
S1130BD090E0FC01EE0FFF1FEE0FFF1FEE0FFF1F53
S1130BE08E0F9F1FFC01E95BF84F8081811117C0B4
S1130BF0809124078150809324078091240790E0FA
S1130C00FC01EE0FFF1FEE0FFF1FEE0FFF1F8E0FF5
S1130C109F1FFC01E95BF84F8081882349F3E09131
S1130C202407F0E0CF01880F991F880F991F880FC0
S1130C30991FE80FF91FE95BF84FA181B281129661
S1130C400D90BC91A02DB283A183CF010396A81768
S1130C50B90731F412968D919C91139792838183F5
S1130C600180F281E02D86819781909351078093D2
S1130C70500708959093C5008093C4008EE080933C
S1130C80C20088E18093C1000895CF93C82F8A30B1
S1130C9019F48DE00E944506E0ECF0E0908195FFA8
S1130CA0FDCFC093C600CF910895E0ECF0E08081C1
S1130CB08823ECF78091C6000895A0E0B0E0E3E655
S1130CC0F6E00C94F908FE01359661917191AF013B
S1130CD080915407909155070E947106E2E00C94AC
S1130CE01509ACE0B0E0E7E7F6E00C94E9087C0114
S1130CF06B018A01FC0117821682838181FFBDC1C9
S1130D00CE0101964C01F7019381F60193FD859183
S1130D1093FF81916F01882309F4ABC1853239F4C3
S1130D2093FD859193FF81916F01853229F4B70179
S1130D3090E00E945908E7CF512C312C20E020325A
S1130D40A0F48B3269F030F4803259F0833269F4C4
S1130D5020612CC08D3239F0803339F4216026C0F3
S1130D602260246023C0286021C027FD27C030ED05
S1130D70380F3A3078F426FF06C0FAE05F9E300D53
S1130D801124532E13C08AE0389E300D1124332EC3
S1130D9020620CC08E3221F426FD6BC1206406C093
S1130DA08C3611F4206802C0883641F4F60193FDB4
S1130DB0859193FF81916F018111C1CF982F9F7D00
S1130DC09554933028F40C5F1F4FFFE3F9830DC053
S1130DD0833631F0833771F0833509F05BC022C06C
S1130DE0F801808189830E5F1F4F44244394512C62
S1130DF0540115C03801F2E06F0E711CF801A08097
S1130E00B18026FF03C0652D70E002C06FEF7FEF55
S1130E10C5012C870E944E082C0183012C852F7755
S1130E20222E17C03801F2E06F0E711CF801A08069
S1130E30B18026FF03C0652D70E002C06FEF7FEF25
S1130E40C5012C870E9443082C012C852068222E82
S1130E50830123FC1BC0832D90E048165906B0F48F
S1130E60B70180E290E00E9459083A94F4CFF5016A
S1130E7027FC859127FE81915F01B70190E00E94D4
S1130E80590831103A94F1E04F1A510841145104B1
S1130E9071F7E5C0843611F0893639F5F80127FF7A
S1130EA007C060817181828193810C5F1F4F08C0EC
S1130EB060817181882777FD8095982F0E5F1F4F81
S1130EC02F76B22E97FF09C0909580957095619505
S1130ED07F4F8F4F9F4F2068B22E2AE030E0A4014D
S1130EE00E948B08A82EA81844C0853729F42F7EA9
S1130EF0B22E2AE030E025C0F22FF97FBF2E8F36C4
S1130F00C1F018F4883579F0B4C0803719F0883707
S1130F1021F0AFC02F2F2061B22EB4FE0DC08B2D57
S1130F208460B82E09C024FF0AC09F2F9660B92E92
S1130F3006C028E030E005C020E130E002C020E136
S1130F4032E0F801B7FE07C060817181828193812C
S1130F500C5F1F4F06C06081718180E090E00E5FDE
S1130F601F4FA4010E948B08A82EA818FB2DFF7701
S1130F70BF2EB6FE0BC02B2D2E7FA51450F4B4FE4D
S1130F800AC0B2FC08C02B2D2E7E05C07A2C2B2D56
S1130F9003C07A2C01C0752C24FF0DC0FE01EA0D9C
S1130FA0F11D8081803311F4297E09C022FF06C01F
S1130FB07394739404C0822F867809F0739423FD8C
S1130FC013C020FF06C05A2C731418F4530C57187E
S1130FD0732C731468F4B70180E290E02C870E94AC
S1130FE0590873942C85F5CF731410F4371801C085
S1130FF0312C24FF12C0B70180E390E02C870E94BB
S113100059082C8522FF17C021FF03C088E590E012
S113101002C088E790E0B7010CC0822F867859F0AF
S113102021FD02C080E201C08BE227FD8DE2B70101
S113103090E00E945908A51438F4B70180E390E0C9
S11310400E9459085A94F7CFAA94F401EA0DF11DAD
S11310508081B70190E00E945908A110F5CF332098
S113106009F451CEB70180E290E00E9459083A9405
S1131070F6CFF7018681978102C08FEF9FEF2C9600
S1131080E2E10C940509FC010590615070400110E7
S1131090D8F7809590958E0F9F1F0895FC0161509D
S11310A0704001900110D8F7809590958E0F9F1F86
S11310B008950F931F93CF93DF93182F092FEB01FC
S11310C08B8181FD03C08FEF9FEF20C082FF10C092
S11310D04E815F812C813D81421753077CF4E88166
S11310E0F9819F012F5F3F4F39832883108306C006
S11310F0E885F985812F0995892B29F72E813F8170
S11311002F5F3F4F3F832E83812F902FDF91CF910D
S11311101F910F910895FA01AA27283051F1203127
S113112081F1E8946F936E7F6E5F7F4F8F4F9F4F77
S1131130AF4FB1E03ED0B4E03CD0670F781F891FB9
S11311409A1FA11D680F791F8A1F911DA11D6A0F87
S1131150711D811D911DA11D20D009F468943F913A
S11311602AE0269F11243019305D3193DEF6CF0139
S11311700895462F4770405D4193B3E00FD0C9F7FF
S1131180F6CF462F4F70405D4A3318F0495D31FD6C
S11311904052419302D0A9F7EACFB4E0A6959795BF
S11311A0879577956795BA95C9F700976105710595
S11311B008959B01AC010A2E0694579547953795DF
S11311C02795BA95C9F7620F731F841F951FA01D39
S11311D008952F923F924F925F926F927F928F92D7
S11311E09F92AF92BF92CF92DF92EF92FF920F93B2
S11311F01F93CF93DF93CDB7DEB7CA1BDB0B0FB6BC
S1131200F894DEBF0FBECDBF09942A883988488878
S11312105F846E847D848C849B84AA84B984C8840E
S1131220DF80EE80FD800C811B81AA81B981CE0F05
S1131230D11D0FB6F894DEBF0FBECDBFED010895EA
S1071240F894FFCF4C
S1131244000000010000000000005506000000003A
S1131254000200000000450600000000496E6974A5
S113126469616C697A696E67204C454420746173C2
S10F12746B004C45440049444C4500000C
S9030000FC
