S01A0000486F6D65536563757269747953797374656D2E73726563A4
S11300000C9434000C9451000C9451000C94510045
S11300100C9451000C9451000C9451000C94510018
S11300200C9451000C9451000C9451000C94BF0298
S11300300C9451000C9451000C9451000C945100F8
S11300400C9451000C9451000C9451000C945100E8
S11300500C9451000C9451000C9451000C945100D8
S11300600C9451000C94510011241FBECFEFD8E022
S1130070DEBFCDBF11E0A0E0B1E0E0E3F7E102C0F4
S113008005900D92A834B107D9F725E0A8E4B1E0B2
S113009001C01D92A23AB207E1F70E9476000C94C7
S11300A0960B0C940000CF93DF9300D000D0CDB713
S11300B0DEB70CE111E020E04FEF5FEFBE016F5FB0
S11300C07F4F80919805909199050E94C7038823DA
S11300D091F38A818F9389818F931F930F930E9449
S11300E0D3080F900F900F900F90E5CFAF92BF926F
S11300F0CF92DF92EF92FF920F9387E690E00E94F7
S1130100A7088EE091E090939F0580939E0580E080
S113011091E090939D0580939C0540E064E082E02B
S11301200E949903909399058093980540E066E0B6
S113013082E00E94990390939B0580939A05A12CD9
S1130140B12CC12CD12CE12CF12C01E020E030E0C9
S113015045E550E063E371E086EC90E00E94C90459
S113016020E030E045E550E067E371E083E590E0AE
S11301700E94C9040E94D70580E090E00F91FF908F
S1130180EF90DF90CF90BF90AF900895CF93DF931F
S113019000D000D000D0CDB7DEB720E04FEF5FEF46
S11301A0BE016F5F7F4F80919A0590919B050E94DD
S11301B0C703F3CFFC010396928381832FEF3FEFB4
S11301C0348323839683858390878783108208955D
S11301D0FC01118610860895CF93DF939C01FB01E7
S11301E0DC011196CD91DC911297D383C2838C816B
S11301F09D81958384838C819D81DC0113967C93FE
S11302006E9312977D836C8331872087F9018081F7
S11302108F5F8083DF91CF910895CF93DF93EB01BC
S1130220488159814F3F2FEF520721F4FC01A781E8
S1130230B0850DC0DC0113961296ED91FC911397D5
S1130240208131814217530710F0DF01F5CF129658
S1130250ED91FC911397FB83EA83D583C483BD831B
S1130260AC831396DC93CE93129799878887FC010D
S113027020812F5F2083DF91CF910895CF93DF9367
S1130280FC01A085B185C281D381848195819D8340
S11302908C83C481D581828193819B838A831196C7
S11302A0CD91DC911297CE17DF0731F48C819D81BB
S11302B012969C938E931197118610868C9181507F
S11302C08C93DF91CF91089531E1FC013083319714
S11302D022E220833197A3E3A0833197608331978F
S11302E0708331971082319760E860833197108270
S11302F0319762E06083319763E06083319764E013
S11303006083319765E06083319766E0608331975D
S113031067E06083319768E06083319769E06083C8
S1130320319760E1608331973083319732E13083D4
S1130330319733E13083319734E13083319735E1BC
S11303403083319736E13083319737E13083319709
S113035038E13083319739E13083319730E23083AB
S1130360319731E2308331972083319723E2208320
S11303703197408331975083319726E22083319718
S113038027E22083319728E22083319729E22083D2
S1130390319720E32083319721E3208386970895C2
S11303A0109289008CE7809388008BE08093810011
S11303B0EFE6F0E0808182608083A0919605B091A1
S11303C09705CD91CDBFDD91DEBFFF91EF91DF9118
S11303D0CF91BF91AF919F918F917F916F915F91D9
S11303E04F913F912F911F910F91FF90EF90DF90CC
S11303F0CF90BF90AF909F908F907F906F905F90C1
S11304004F903F902F901F900F900FBE0F90089524
S113041081E008950F920FB6F8940F921F92112461
S11304202F923F924F925F926F927F928F929F9200
S1130430AF92BF92CF92DF92EF92FF920F931F93EE
S11304402F933F934F935F936F937F938F939F93D8
S1130450AF93BF93CF93DF93EF93FF93A091960550
S1130460B09197050DB60D920EB60D920E948D07B0
S1130470A0919605B0919705CD91CDBFDD91DEBFDA
S1130480FF91EF91DF91CF91BF91AF919F918F91A8
S11304907F916F915F914F913F912F911F910F9198
S11304A0FF90EF90DF90CF90BF90AF909F908F9090
S11304B07F906F905F904F903F902F901F900F9080
S11304C00FBE0F9008950F920FB6F8940F921F92DB
S11304D011242F923F924F925F926F927F928F924C
S11304E09F92AF92BF92CF92DF92EF92FF920F93BF
S11304F01F932F933F934F935F936F937F938F93A8
S11305009F93AF93BF93CF93DF93EF93FF93A09108
S11305109605B09197050DB60D920EB60D920E94F8
S11305200F0681110E948D07A0919605B091970541
S1130530CD91CDBFDD91DEBFFF91EF91DF91CF91E2
S1130540BF91AF919F918F917F916F915F914F91E7
S11305503F912F911F910F91FF90EF90DF90CF90DB
S1130560BF90AF909F908F907F906F905F904F90CF
S11305703F902F901F900F900FBE0F9008950E94F0
S113058063021895CF93DF93EC010E9409068091D2
S1130590480190914901892B31F48DE491E09093C5
S11305A049018093480140914A0150914B019E01B9
S11305B0240F351F273E83E0380770F44217530792
S11305C070F4C0914801D0914901C40FD51F3093F4
S11305D04B0120934A0105C0C0E0D0E002C0C0E056
S11305E0D0E00E94CE06CE01DF91CF910895089508
S11305F0FC01CB01448D4423A1F050E026813781D6
S1130600240F351F378326836281738126173707AA
S113061020F02081318137832683668177810E948F
S1130620CA0808950F931F93CF93DF93EC010FB67D
S1130630F8940F928E8D1816B4F48989882399F052
S11306408E010F5E1F4F03C08989882361F0C801A2
S11306500E94170881110E94A3088E8D81508E8FED
S11306608E8D18168CF38FEF8E8F0F900FBE0FB6F2
S1130670F8940F928D8D1816B4F48885882399F018
S11306808E01085F1F4F03C08885882361F0C8016D
S11306900E94170881110E94A3088D8D81508D8FAF
S11306A08D8D18168CF38FEF8D8F0F900FBEDF9109
S11306B0CF911F910F910895CF93DF93EC010FB663
S11306C0F8940F92888199812C8D30E07B8D729FF4
S11306D0A001739F500D1124FC01E40FF51FFB834F
S11306E0EA831A8E9D838C83421B530B840F951FC0
S11306F09F838E838FEF8D8F8E8F61110CC08885C1
S1130700882389F0CE0108960E941708813059F495
S11307100E940A0208C0CE0108960E94DA00CE01A7
S113072041960E94DA000F900FBE81E0DF91CF91D5
S113073008950F931F93CF93DF93082F162F6623EB
S1130740C9F0869FC001112480960E94C202EC0168
S1130750009721F416C0D983C88305C09C01215E8B
S11307603F4F398328830B8F1C8F61E0CE010E9499
S11307705C0307C08FE190E00E94C202EC01009785
S113078051F7CE01DF91CF911F910F9108959F9260
S1130790AF92BF92CF92DF92EF92FF920F931F938B
S11307A0CF93DF9300D000D01F92CDB7DEB78C017A
S11307B06B015D834C83B22EA12C992493947C010C
S11307C081E1E80EF11C0FB6F8940F92F801828DC6
S11307D0882349F1E680F780B601C8010E94F80237
S11307E0B11010C0F801828D8150828F80858823DA
S11307F0B1F0C80108960E941708813081F40E9464
S11308000A020DC0F801F782E6828189882339F053
S1130810C80141960E94170881110E940A020F9094
S11308200FBE81E04FC04C815D81452B21F40F90B8
S11308300FBE80E047C0A11005C0CE0101960E9402
S11308405F08A92C0F900FBE0E9409060FB6F894FA
S11308500F92F801858D8F3F09F4158EF801868D6E
S11308608F3F09F4168E0F900FBEBE016C5F7F4F51
S1130870CE0101960E946A0881111EC00FB6F89439
S11308800F92F801828D0F900FBE81110FC06C8101
S11308907D81C7010E94EB07C8010E9412030E94D8
S11308A0CE06811190CF0E940A028DCFC8010E940A
S11308B012030E94CE0687CFC8010E9412030E9431
S11308C0CE0680E00F900F900F900F900F90DF9165
S11308D0CF911F910F91FF90EF90DF90CF90BF9039
S11308E0AF909F900895E0915E05F0915F0580813F
S11308F0811107C08FEF9FEF9093360580933505E4
S11309000895E0915E05F0915F050580F681E02D84
S11309100680F781E02D8281938190933605809340
S113092035050895CF93DF93EC01E0919605F0919E
S113093097059383828380913D0590913E05C81766
S1130940D90768F4609196057091970580915C05CC
S113095090915D056E5F7F4F0E940D0117C06091FD
S113096096057091970580915E0590915F056E5F85
S11309707F4F0E940D018091350590913605C8176F
S1130980D90720F4D0933605C0933505DF91CF9174
S113099008954F925F926F927F928F929F92AF923F
S11309A0BF92CF92DF92EF92FF920F931F93CF9358
S11309B0DF934C015B012A013901C114D10439F4DC
S11309C0CA010E94C2026C01009709F4DEC086E2EB
S11309D090E00E94C202EC01009771F0D88ECF8A99
S11309E081E0481A5108C40CD51CD5018C91898F1B
S11309F08C91811105C015C0C6010E94F702C5C0C3
S1130A00AE01465E5F4FF501319627E0CF0131918B
S1130A10DA013D93AD01DC018C91882311F0215062
S1130A20A9F718A2102F043008F013E01E8B5E0102
S1130A30B2E0AB0EB11CC5010E94E800CE010C96D9
S1130A400E94E800D987C88784E090E0811B91095F
S1130A509D878C87DB8BCA8B19A21AA21BA21CA2AE
S1130A601DA2A301B401C6010E9464019983888375
S1130A70E114F10419F0F701D183C0830FB6F8949F
S1130A800F9280913F058F5F80933F05809196057B
S1130A9090919705892BD1F5D0939705C09396052E
S1130AA080913F05813009F040C082E795E00E94C3
S1130AB0DA008BE795E00E94DA0084E895E00E9472
S1130AC0DA008DE895E00E94DA0089E695E00E945C
S1130AD0DA0080E695E00E94DA0083E595E00E9462
S1130AE0DA008AE495E00E94DA0080E495E00E944E
S1130AF0DA0089E695E090935F0580935E0580E6D1
S1130B0095E090935D0580935C050FC080913B0553
S1130B1081110BC0E0919605F0919705868908171D
S1130B2020F0D0939705C0939605809137058F5F89
S1130B30809337058E8990913C05981710F4809323
S1130B403C0590E09C01220F331F220F331F220F1C
S1130B50331F820F931FB5018E589A4F0E94EC00E9
S1130B600F900FBE80913B05882359F0E0919605C4
S1130B70F09197058689801730F40E940A0281E07B
S1130B8005C081E003C081E001C08FEFDF91CF9108
S1130B901F910F91FF90EF90DF90CF90BF90AF9097
S1130BA09F908F907F906F905F904F900895AF9239
S1130BB0BF92CF92DF92EF92FF920F93A12CB12CB0
S1130BC0C12CD12CE12CF12C00E020E030E045E5F3
S1130BD050E062E471E081E597E00E94C90481304D
S1130BE081F4F8948FEF9FEF909336058093350549
S1130BF081E080933B0510923E0510923D050E94D2
S1130C00D0010F91FF90EF90DF90CF90BF90AF9005
S1130C100895809134058F5F809334050895CF92B1
S1130C20DF92EF92FF920F931F93CF93DF93809104
S1130C30340581119AC080913D0590913E0501963D
S1130C4090933E0580933D05E0903D05F0903E0570
S1130C50E114F104B9F480915E0590915F0520914F
S1130C605C0530915D0530935F0520935E0590939C
S1130C705D0580935C05809138058F5F809338050E
S1130C800E9473048091350590913605E816F906A3
S1130C9008F454C0D12CCC24C39401C0DC2CE091C2
S1130CA05E05F0915F058081811107C08FEF9FEF92
S1130CB0909336058093350542C0E0915E05F0912E
S1130CC05F050580F681E02DC681D7812A813B81AD
S1130CD0E216F30628F430933605209335052FC029
S1130CE08E010E5F1F4FC8010E943E018C899D89B1
S1130CF0892B21F0CE010C960E943E012E89809111
S1130D003C05821710F420933C0530E0C901880F9C
S1130D10991F880F991F880F991F820F931FB8017D
S1130D208E589A4F0E94EC00E0919605F091970539
S1130D309E898689981708F0B1CFB1CFD12CE09164
S1130D409605F0919705868990E0FC01EE0FFF1F50
S1130D50EE0FFF1FEE0FFF1F8E0F9F1FFC01EE58BB
S1130D60FA4F8081823040F409C080913A058F5F48
S1130D7080933A05D12C02C0DD24D39480913905A7
S1130D80882311F0DD24D3948D2DDF91CF911F9111
S1130D900F91FF90EF90DF90CF900895DF92EF9244
S1130DA0FF920F931F93CF93DF930FB6F8940F9294
S1130DB080913405815080933405809134058111EC
S1130DC061C080913F05882309F45EC00F2EF3E5CE
S1130DD0EF2EF5E0FF2EF02DDD24D39430C0E0910A
S1130DE05805F0915905C681D781CE010C960E9411
S1130DF03E018E010E5F1F4FC8010E943E018E8985
S1130E0090913C05981710F480933C0590E09C0168
S1130E10220F331F220F331F220F331F820F931F02
S1130E20B8018E589A4F0E94EC00E0919605F0911B
S1130E3097059E898689981710F0D0923905F70195
S1130E4080818111CCCF80913A05882399F08091DB
S1130E503A05882379F0C1E00E940F068111C093FE
S1130E60390580913A05815080933A0580913A057D
S1130E708111F2CF80913905813041F40E940A0238
S1130E8081E005C080E003C080E001C080E00F90F5
S1130E900FBEDF91CF911F910F91FF90EF90DF90E4
S1130EA008950F2EF2E7EF2EF5E0FF2EF02DCAE4A1
S1130EB0D5E028C00E94090618810E94CE0611239D
S1130EC009F10FB6F8940F92E0914F05F091500597
S1130ED006811781C80102960E943E0180913F0558
S1130EE0815080933F058091490581508093490545
S1130EF00F900FBEF8018789908D0E94F702C801F8
S1130F000E94F702809149058111D4CFF7018081B5
S1130F108230C0F30E940A02F5CF80913405882301
S1130F2021F081E08093390508951092390580916C
S1130F303C0590E0FC01EE0FFF1FEE0FFF1FEE0FCC
S1130F40FF1F8E0F9F1FFC01EE58FA4F8081811105
S1130F5017C080913C05815080933C0580913C05ED
S1130F6090E0FC01EE0FFF1FEE0FFF1FEE0FFF1FBF
S1130F708E0F9F1FFC01EE58FA4F8081882349F39E
S1130F80E0913C05F0E0CF01880F991F880F991F6D
S1130F90880F991FE80FF91FEE58FA4FA181B2810B
S1130FA012960D90BC91A02DB283A183CF0103961C
S1130FB0A817B90731F412968D919C9113979283D7
S1130FC081830180F281E02D86819781909397053A
S1130FD0809396050895CF93DF93EB016091960576
S1130FE070919705645F7F4F0E940D018091960573
S1130FF09091970502960E943E01CF3F8FEFD8074C
S113100059F460919605709197056E5F7F4F80E467
S113101095E00E94EC0008C080913D0590913E054A
S11310208C0F9D1F0E949204DF91CF9108950F931E
S11310301F93CF93DF93DC011596ED91FC911697E6
S1131040C681D7818E01045F1F4FC8010E943E01F3
S11310508091340581111CC00A501109C8010E94F5
S11310603E018E8990913C05981710F480933C05BD
S113107090E09C01220F331F220F331F220F331FD6
S1131080820F931FB8018E589A4F0E94EC0005C03E
S1131090B80183E595E00E94EC00E0919605F0919B
S11310A097059E898689891720F481E08093390504
S11310B001C080E0DF91CF911F910F91089520919D
S11310C03805FC01208320913D0530913E05328393
S11310D0218308950FB6F8940F9240913D055091E5
S11310E03E05DB012D913C912F3FBFEF3B0719F1EA
S11310F0E0913805DC01FC91FE1739F01196ED9171
S1131100FC9112974E175F07C0F4DC011196ED9124
S1131110FC911297DA01AE1BBF0BA217B30778F448
S1131120E41BF50B2E0F3F1FFB01318320830E942C
S11311305F0880E005C080E003C081E001C081E079
S11311400F900FBE089581E0809339050895909320
S1131150C5008093C4008EE08093C20088E1809330
S1131160C1000895CF93C82F8A3019F48DE00E94EE
S1131170B208E0ECF0E0908195FFFDCFC093C6008B
S1131180CF910895E0ECF0E080818823ECF7809122
S1131190C6000895FB01DC0102C001900D9241508C
S11311A05040D8F70895A0E0B0E0E9EDF8E00C94E1
S11311B06F0BFE01359661917191AF0180919E058F
S11311C090919F050E94E708E2E00C948B0BACE041
S11311D0B0E0EDEEF8E00C945F0B7C016B018A014A
S11311E0FC0117821682838181FFBDC1CE01019665
S11311F04C01F7019381F60193FD859193FF819151
S11312006F01882309F4ABC1853239F493FD8591CC
S113121093FF81916F01853229F4B70190E00E9418
S1131220CF0AE7CF512C312C20E02032A0F48B32AE
S113123069F030F4803259F0833269F420612CC0B3
S11312408D3239F0803339F4216026C02260246065
S113125023C0286021C027FD27C030ED380F3A3065
S113126078F426FF06C0FAE05F9E300D1124532E59
S113127013C08AE0389E300D1124332E20620CC036
S11312808E3221F426FD6BC1206406C08C3611F425
S1131290206802C0883641F4F60193FD859193FFDE
S11312A081916F018111C1CF982F9F7D9554933007
S11312B028F40C5F1F4FFFE3F9830DC0833631F030
S11312C0833771F0833509F05BC022C0F801808157
S11312D089830E5F1F4F44244394512C540115C03D
S11312E03801F2E06F0E711CF801A080B18026FF76
S11312F003C0652D70E002C06FEF7FEFC5012C873E
S11313000E94C40A2C0183012C852F77222E17C03A
S11313103801F2E06F0E711CF801A080B18026FF45
S113132003C0652D70E002C06FEF7FEFC5012C870D
S11313300E94B90A2C012C852068222E830123FCEB
S11313401BC0832D90E048165906B0F4B70180E223
S113135090E00E94CF0A3A94F4CFF50127FC8591DE
S113136027FE81915F01B70190E00E94CF0A3110FE
S11313703A94F1E04F1A51084114510471F7E5C051
S1131380843611F0893639F5F80127FF07C06081EA
S11313907181828193810C5F1F4F08C060817181CC
S11313A0882777FD8095982F0E5F1F4F2F76B22EDA
S11313B097FF09C090958095709561957F4F8F4FE9
S11313C09F4F2068B22E2AE030E0A4010E94010B56
S11313D0A82EA81844C0853729F42F7EB22E2AE0FF
S11313E030E025C0F22FF97FBF2E8F36C1F018F4FC
S11313F0883579F0B4C0803719F0883721F0AFC050
S11314002F2F2061B22EB4FE0DC08B2D8460B82E18
S113141009C024FF0AC09F2F9660B92E06C028E099
S113142030E005C020E130E002C020E132E0F80104
S1131430B7FE07C060817181828193810C5F1F4F69
S113144006C06081718180E090E00E5F1F4FA401AF
S11314500E94010BA82EA818FB2DFF77BF2EB6FE05
S11314600BC02B2D2E7FA51450F4B4FE0AC0B2FC81
S113147008C02B2D2E7E05C07A2C2B2D03C07A2C70
S113148001C0752C24FF0DC0FE01EA0DF11D808101
S1131490803311F4297E09C022FF06C0739473942B
S11314A004C0822F867809F0739423FD13C020FFB3
S11314B006C05A2C731418F4530C5718732C731455
S11314C068F4B70180E290E02C870E94CF0A7394FD
S11314D02C85F5CF731410F4371801C0312C24FF78
S11314E012C0B70180E390E02C870E94CF0A2C85BC
S11314F022FF17C021FF03C088E590E002C088E7FF
S113150090E0B7010CC0822F867859F021FD02C00B
S113151080E201C08BE227FD8DE2B70190E00E94DA
S1131520CF0AA51438F4B70180E390E00E94CF0AF3
S11315305A94F7CFAA94F401EA0DF11D8081B70102
S113154090E00E94CF0AA110F5CF332009F451CEC8
S1131550B70180E290E00E94CF0A3A94F6CFF701F7
S11315608681978102C08FEF9FEF2C96E2E10C9465
S11315707B0BFC010590615070400110D8F78095F9
S113158090958E0F9F1F0895FC016150704001904B
S11315900110D8F7809590958E0F9F1F08950F9393
S11315A01F93CF93DF93182F092FEB018B8181FDBC
S11315B003C08FEF9FEF20C082FF10C04E815F8178
S11315C02C813D81421753077CF4E881F9819F0106
S11315D02F5F3F4F39832883108306C0E885F98540
S11315E0812F0995892B29F72E813F812F5F3F4F4A
S11315F03F832E83812F902FDF91CF911F910F91E5
S11316000895FA01AA27283051F1203181F1E89494
S11316106F936E7F6E5F7F4F8F4F9F4FAF4FB1E0E1
S11316203ED0B4E03CD0670F781F891F9A1FA11DDC
S1131630680F791F8A1F911DA11D6A0F711D811DDD
S1131640911DA11D20D009F468943F912AE0269FA2
S113165011243019305D3193DEF6CF010895462F01
S11316604770405D4193B3E00FD0C9F7F6CF462FE2
S11316704F70405D4A3318F0495D31FD405241934B
S113168002D0A9F7EACFB4E0A69597958795779508
S11316906795BA95C9F700976105710508959B018F
S11316A0AC010A2E06945795479537952795BA9518
S11316B0C9F7620F731F841F951FA01D08952F92F1
S11316C03F924F925F926F927F928F929F92AF92CE
S11316D0BF92CF92DF92EF92FF920F931F93CF931B
S11316E0DF93CDB7DEB7CA1BDB0B0FB6F894DEBFB2
S11316F00FBECDBF09942A88398848885F846E84D8
S11317007D848C849B84AA84B984C884DF80EE8021
S1131710FD800C811B81AA81B981CE0FD11D0FB62A
S1131720F894DEBF0FBECDBFED010895F894FFCF4E
S113173000000001000000000000C20800000000DA
S1131740000200000000B2080000000048616C6C58
S11317502065666665637420766F6C7461676520C6
S11317602564005254430048616C6C4566666563A9
S10B1770740049444C450000DB
S9030000FC
